:020000040800F2
:10000000D80B00206902000871190008A917000820
:10001000C91800085F040008CD1C0008000000009B
:10002000000000000000000000000000211C00088B
:10003000110500080000000073190008231C0008C7
:10004000830200088302000883020008830200087C
:10005000830200088302000883020008830200086C
:10006000830200088302000883020008830200085C
:10007000830200088302000883020008830200084C
:10008000830200088302000883020008830200083C
:1000900061040008830200086D0400088302000860
:1000A000830200088302000883020008830200081C
:1000B000830200088302000883020008830200080C
:1000C00083020008830200088302000883020008FC
:1000D00083020008830200088302000883020008EC
:1000E00083020008830200088302000883020008DC
:1000F00083020008830200088302000883020008CC
:1001000083020008830200088302000883020008BB
:1001100083020008830200088302000883020008AB
:10012000830200088302000883020008830200089B
:1001300083020008000000000000000083020008A5
:10014000830200087904000885040008830200087F
:10015000830200088302000883020008830200086B
:10016000830200088302000883020008830200085B
:100170008302000883020008000000000000000065
:10018000830200088302000800F002F800F05CF827
:100190000AA090E8000C82448344AAF10107DA45E2
:1001A00001D100F051F8AFF2090EBAE80F0013F0D8
:1001B000010F18BFFB1A43F0010318474C1E000043
:1001C0006C1E00000A444FF0000C10F8013B13F0C5
:1001D000070408BF10F8014B1D1108BF10F8015BA0
:1001E000641E05D010F8016B641E01F8016BF9D193
:1001F00013F0080F1EBF10F8014BAD1C0C1B09D1EA
:100200006D1E58BF01F801CBFAD505E014F8016B5B
:1002100001F8016B6D1EF9D59142D6D370470000ED
:100220000023002400250026103A28BF78C1FBD8FF
:10023000520728BF30C148BF0B6070471FB501F09F
:10024000D6FE1FBD10B510BD00F0CFF81146FFF768
:10025000F5FF01F05DFD00F0EDF803B4FFF7F2FFEC
:1002600003BC00F0F5F80000094880470948004742
:10027000FEE7FEE7FEE7FEE7FEE7FEE7FEE7FEE756
:10028000FEE7FEE704480549054A064B70470000B3
:10029000BD1C000889010008D8050020D80B0020EB
:1002A000D8070020D807002053EA020C00F069802C
:1002B0002DE9F04B4FF00006002B1FBFB3FA83F57A
:1002C00003FA05F424FA05F65E4012BF1643B2FAAB
:1002D00082F502FA05F4C5F120051EBF22FA05FCDD
:1002E00044EA0C04203556EA044C4FEA144418BF83
:1002F000641C4FF000084FF00009904271EB030CB2
:1003000039D3002919BFB1FA81F701FA07F6B0FA1B
:1003100080F700FA07F6C7F120071EBF20FA07FC96
:1003200046EA0C062037B6FBF4FCA7EB0507103FA6
:1003300007F01F0BCBF120060CFA0BFB2CFA06F68C
:1003400044BFB3460026202FA4BF5E464FF0000BEB
:100350005BEA060C08BF4FF0010B19EB0B09ABFB76
:10036000027C48EB0608C01B06FB02CC0BFB03CC4F
:1003700071EB0C01C1E70B46024641464846BDE819
:10038000F08B13B54FF000004FF00001AFF3008089
:10039000BDE81C4070474FF0000200B5134694467C
:1003A0009646203922BFA0E80C50A0E80C50B1F1CD
:1003B0002001BFF4F7AF090728BFA0E80C5048BFE1
:1003C0000CC05DF804EB890028BF40F8042B08BF7F
:1003D000704748BF20F8022B11F0804F18BF00F87B
:1003E000012B7047704770477047754600F02CF836
:1003F000AE4605006946534620F00700854618B012
:1004000020B5FFF73FFFBDE820404FF000064FF05A
:1004100000074FF000084FF0000B21F00701AC4639
:10042000ACE8C009ACE8C009ACE8C009ACE8C00958
:100430008D46704710B50446AFF300802046BDE8F6
:100440001040FFF70ABF0000004870477805002001
:1004500001491820ABBEFEE7260002007047FEE708
:10046000014800F03CBA000038040020014800F0C8
:1004700036BA000038040020014800F030BA00000D
:1004800060040020014800F02ABA00006004002047
:1004900030B51D49036801220D6800218BB0044668
:1004A000AB4211D1CDE90612059103910992009159
:1004B0000191029104910892694600F0FFF82046EC
:1004C00000F06CFC022116E0104D2D68AB4215D1F6
:1004D00005AB0F2083E80700009101910291CDE95F
:1004E0000312CDE908206946204600F0E7F82046CF
:1004F00000F054FC1021204600F060F8002801D0E4
:1005000000F007F80BB030BD380400206004002074
:10051000704772B6FEE7000010B52DED048BB0EE0B
:10052000408AF0EE608A9FED0E9B51EC180B53EC65
:10053000192B01F0B5FC0CD353EC192B51EC180B13
:1005400001F01EFC05D851EC180B01F001FC41EC48
:10055000180BB0EE480AF0EE680ABDEC048B10BD33
:1005600000000000000000000948B0F9021000EE91
:10057000101A0849B8EEC00A81ED000AB0F904006B
:1005800000EE100A0448B8EEC00A80ED000A704779
:100590001000002000000020040000200548B0F9F1
:1005A000060000EE100A0448B8EEC00A80ED000A0A
:1005B00070470000100000200800002090F8202064
:1005C000012A07D0022A05D0416A41F48021416204
:1005D00001207047006842690A4342610020704769
:1005E000F0B590F820500468A468012D05D0022DC4
:1005F00003D0416A41F480215DE014F0406F01D1E5
:10060000E50055D5C4F30164022C03D9416A41F4D5
:10061000000150E00125A5401D608D684FF4C073B6
:100620009DB1CE6835434E6845EAC605066803EBC2
:100630000417F5514FF4C275076805EB04150E69F0
:100640007E51097D012905D009E00E88CD6845EA73
:100650004655EBE701684E5946F480764E511179C4
:10066000D579567941EA056195792D0445EA062543
:1006700029434FF4C676056806EB0416A951117894
:10068000D57841EA0561957852782D0445EA022231
:1006900011434FF4C475026805EB0415515100680D
:1006A00003EB0411425842F0010242500020F0BD19
:1006B000416A41F4001141620120F0BD10B590F88B
:1006C0002020012A07D0022A05D0416A41F4802166
:1006D0004162012010BD3B48D0F8002242F00102E7
:1006E000C0F80022D0F8002222F47C52C0F8002288
:1006F000D0F800224B6A42EA0322C0F800220A7DA9
:1007000002F01F0301229A40D0F81C329343C0F834
:100710001C32CB69B3B9D0F80C329343C0F80C3219
:100720008C894B6864F31F434C6900EBC404C4F824
:1007300040320C890B6864F31F434C6900EBC4041E
:10074000C4F84432CB69012B16D1D0F80C321343D4
:10075000C0F80C320C884B6864F31F434C6900EB03
:10076000C404C4F840320C89CB6864F31F434C695D
:1007700000EBC404C4F844328B69002BD0F8043277
:100780000ED01343C0F804320B69002BD0F814329A
:1007900008D01343C0F81432096A012904D008E0D4
:1007A0009343EFE79343F5E7D0F81C121143C0F8E9
:1007B0001C12D0F8001221F00101C0F80012002034
:1007C00010BD000000640040704730B590F8204034
:1007D000012C05D0022C03D0416A41F480215DE058
:1007E0000468002955D02469A40754D04FF4D87464
:1007F000056804EB01142D5915F004059560056892
:100800002D594ED0ED08556005682C5904F00204AE
:10081000D4604FF4DA74056804EB01142D5905F027
:100820000F05156105682D59C5F307259561056804
:100830002C59240C54614FF4DC72046802EB011251
:10084000A4581C700468A458240A5C700468A45856
:10085000240C9C700468A258120EDA704FF4DE72F9
:10086000046802EB0112A4581C710468A458240AFD
:100870005C710468A458240C9C710468A258120E80
:10088000DA71006881B1016941F020010161002045
:1008900030BDE468A8E7416A41F4001141620120DB
:1008A00030BD6D0D1560AFE7C16841F02001C1603A
:1008B000EDE70246002092F82010012901D002291C
:1008C0000CD111688A68520100D501208A68120192
:1008D00000D5401C8968C90000D5401C70472DE92F
:1008E000F05F0546006800244669D0F804908768E8
:1008F000D0F80CB0D0F810A0D0F81880F10748D08C
:10090000F90714D001218160B80703D5284600F00B
:1009100072FA0CE0780702D54FF4006407E038075C
:1009200002D54FF4805402E0284600F063FAF8053F
:1009300016D529684FF480708860B80503D528461D
:1009400000F05BFA0CE0780502D544F4005407E0AF
:10095000380502D544F4804402E0284600F04CFA01
:10096000F80316D529684FF480308860B80303D5A2
:10097000284600F044FA0CE0780302D544F4004421
:1009800007E0380302D544F4803402E0284600F042
:1009900035FA300707D55FEACB6004D52968102007
:1009A00044F40074C86070074FF0080707D55FEA89
:1009B0000B7004D52868C760284600F0ABF9B00773
:1009C00006D52868C068800702D0284600F0A4F940
:1009D000700607D55FEACA6004D52968102044F480
:1009E00080640861B00607D55FEA0A7004D52868FC
:1009F0000761284600F0B0F9F00606D528680069BE
:100A0000800702D0284600F0A9F9B00308D55FEAB4
:100A1000C96005D5296810204860284600F0BCF957
:100A2000F00307D55FEA097004D5286847602846B7
:100A300000F0E6F9300446D55FEA497040D5F0058C
:100A400004D55FEAC87001D044F00104B00504D5B4
:100A50005FEA887001D544F00204700504D55FEAAE
:100A6000487001D544F00404300529D518F0700F02
:100A700026D008F07000402815D006DC102809D0D8
:100A800020280AD0302816D10AE050280ED060283D
:100A900011D10EE044F008040DE044F010040AE027
:100AA00044F0200407E044F0400404E044F08004F3
:100AB00001E044F480742868816921F0700181614B
:100AC000296804204860002C05D0686A20436862C9
:100AD0002846FFF779FEBDE8F09F70B5040003D00B
:100AE00094F8200010B104E0012070BD204600F011
:100AF00081F82068016841F00101016000F08CFA82
:100B00000546052604E000F087FA401B0A2811D8A4
:100B100020684068C007F6D02068016821F0020113
:100B2000016000F079FA05460BE000F075FA401B11
:100B30000A2806D9606A40F40030606284F82060B8
:100B4000D2E7206840688007EFD4207E0128206823
:100B500001683DD021F080010160607E012820689D
:100B6000016838D021F040010160A07E0128206892
:100B7000016833D021F020010160E07E0128206867
:100B800001682ED041F010010160207F012820680B
:100B9000016829D021F008010160607F01282068E8
:100BA000016824D021F004010160D4E90201084366
:100BB000D4E90412114308436168491E08432168BF
:100BC000C86100206062012084F82000002070BD10
:100BD00041F08001C0E741F04001C5E741F020014C
:100BE000CAE721F01001CFE741F00801D4E741F056
:100BF0000401D9E7F0B587B0044614216846FFF731
:100C0000CAFB3F4B3F48DFF8F4E01968D4F800C056
:100C10003C4A02250326092710300024491CF445CC
:100C20002CD11960012907D1016841F000710160E0
:100C3000006800F000700590106840F0010010603E
:100C4000106802AB00F0010005904FF4C050CDE9F0
:100C5000000583E8D00069462B4800F0E5F8002243
:100C60001146142000F046FA142000F035FA002254
:100C70001146162000F03EFA16203BE0DFF88CE02B
:100C8000F44539D1D0F800C04CF0806CC0F800C0F9
:100C9000D0F800C001290CF0806CCDF814C01960A8
:100CA00007D1016841F000710160006800F0007038
:100CB0000590106840F002001060106802AB00F070
:100CC000020005904FF44050CDE9000583E8D000C4
:100CD00069460F4800F0A8F800221146412000F0B4
:100CE00009FA412000F0F8F900221146422000F0F4
:100CF00001FA422000F0F0F907B0F0BD00640040B6
:100D00000C00002030380240000002400068004023
:100D1000000402407047000000B50E49006889B029
:100D20000968884213D100200090014601906B466B
:100D300002AA0848FFF749FD0498002807D1029845
:100D4000A0F20121072902D8694600F02DFE09B062
:100D500000BD0000380400207047000000B50D49B8
:100D6000006889B00968884211D100200090019084
:100D70006B4602AA01210748FFF727FD04980028C7
:100D800005D10298502802D1694600F0B1FF09B0A0
:100D900000BD0000600400207047000070B50446EC
:100DA00090F82000012804D0606A40F400206062BE
:100DB00018E0022084F820002068016821F0010179
:100DC000016000F029F905460EE000BF00F024F9AB
:100DD000401B0A2808D9606A40F400306062052090
:100DE00084F82000012070BD20684068C007EDD164
:100DF000606270BD704770477047704770477047BA
:100E00007047000070B5044600F006F90546601C06
:100E100002D004480078044400F0FEF8401BA042D1
:100E2000FAD370BD280400202DE9F84FDFF8BCA1EB
:100E30000022012503264FF00F090AF1040BAAF145
:100E4000040E00BF0B6805FA02F42340A34270D1E0
:100E50000F7907F00307012F01D0022F16D1876801
:100E60004FEA420806FA08FC27EA0C07D1F80CC042
:100E70000CFA08FC4CEA070CC0F808C04768A74306
:100E80000C79C4F3001494403C4344600C79E4436F
:100E9000A4070AD0C4684FEA420C06FA0CF7BC4318
:100EA0008F6807FA0CF72743C7600C7904F0030436
:100EB000022C12D1D40800EB840CDCF82040570738
:100EC000FF0E09FA07F824EA0804D1F8108008FA9E
:100ED00007F848EA0408CCF8208004684FEA420C7E
:100EE00006FA0CF7BC430F7907F0030707FA0CF773
:100EF000274307604C6814F4403F70D03C4C27688F
:100F000047F480472760246822F0030704F48044F4
:100F10000094384C07EB040CDCF8084897074FEABC
:100F2000177809FA08F7BC43334FB84202D10027BB
:100F300024E054E0314FB84201D101271EE0304F88
:100F4000B84201D1022719E02E4FB84201D1032740
:100F500014E02D4FB84201D104270FE02B4FB842C7
:100F600001D105270AE02A4FB84201D1062705E042
:100F7000284FB84201D1072700E0082707FA08F7F1
:100F80002743CCF80878DAF800405746D1F804C077
:100F90009C435FEACC2C00D51C433C60DBF800404E
:100FA0005F46D1F804C09C435FEA8C2C00D51C43FB
:100FB0003C60DEF800407746D1F804C09C435FEA0D
:100FC0008C3C00D51C433C60084F083F3C68D1F87E
:100FD00004C09C435FEACC3C00D51C433C60521CDF
:100FE000102AFFF42FAFBDE8F88F0000083C014045
:100FF000443802400030014000000240000402403A
:1010000000080240000C02400010024000140240A0
:1010100000180240001C0240014880687047000030
:1010200028040020024881680278114481607047DA
:10103000280400200B4810B5016841F400710160DC
:10104000016841F480610160016841F480710160D0
:10105000032000F06FF80F2000F006F800F024F8ED
:10106000002010BD003C024070B50D4D04464FF409
:101070007A712878B1FBF0F00A490968B1FBF0F009
:1010800000F07EFB48B9102C07D200222146501EEA
:1010900000F030F800206C6070BD012070BD0000D1
:1010A00028040020340400200A4808B5016841F4EF
:1010B00080410160006800F4804000900548001FF6
:1010C000016841F080510160006800F0805000909C
:1010D00008BD000044380240002809DB00F01F0270
:1010E000012191404009800000F1E020C0F800118A
:1010F00070470000F0B40E4B1B680C46C3F302238C
:10110000C3F10705042D00D90425191D072901D2B3
:10111000002300E0DB1E012606FA05F1491E2140EE
:1011200099409E40761E16403143F0BC00F0CFBD82
:101130000CED00E0064900F0070208684FF6FF03D7
:10114000184040EA0220034A10430860704700003C
:101150000CED00E00000FA052DE9F0470E46050011
:1011600065D0DFF81481D8F80000F7B200F007006E
:10117000B04207D288F80070D8F8000000F00700ED
:10118000B04254D128683D4C810712D5400703D5A1
:10119000206840F4E05020602878000703D52068DC
:1011A00040F4604020602068A96820F0F000084307
:1011B00020602878C0072DD0304968680839012898
:1011C00012D0022813D0032811D0096889070029FA
:1011D0002DDA216821F0030101432160FFF71CFF94
:1011E000814641F2883A0EE009688903EFE7096811
:1011F0008901ECE7FFF710FFA0EB0901514502D987
:101200000320BDE8F0872068696800F00C00B0EBAF
:10121000810FEFD1D8F80010404601F00701B1422C
:1012200007D90770006800F00700B04201D0012024
:10123000E7E72878400705D52068E96820F4E05002
:10124000084320602878000706D52068296920F423
:10125000604040EAC100206000F018F82168084AA8
:10126000C1F30311515CC840064908600648006894
:10127000FFF7FAFE0020C4E7003C024008380240B5
:10128000F81F0008340400202C040020154810B575
:10129000006810F00C02144813D01449042A0FD02F
:1012A000082A0ED10F4C241F2268236802F03F0247
:1012B0005B0207D52068C0F38810A0FB010106E09F
:1012C000084610BD2168C1F38811A1FB000100236D
:1012D000FEF7EAFF2168C1F30141491C4900B0FB58
:1012E000F1F010BD083802400024F40040787D0180
:1012F0002DE9F84F04006ED02078DFF84C93C0073A
:10130000A9F104054AD009F104000168C1F3810183
:10131000012908D00068C0F3810002280AD1D9F859
:101320000000400206D52868800337D56068002891
:10133000E1D033E06068B0F5803F10D0B0F5A02F69
:10134000286810D020F480302860286820F480209D
:1013500028606068A8B1FFF75FFE06460DE02868C8
:1013600040F48030F4E740F480202860F7E700BFC5
:10137000FFF752FE801B642873D828688003F7D5D6
:101380000CE0FFF749FE064605E000BFFFF744FE0C
:10139000801B6428F0D828688003F7D42078DFF811
:1013A000AC8280074FF0000A3ED5A748001D0168B7
:1013B00011F00C0F08D00068C0F3810002280BD197
:1013C000D9F80000400207D42868800716D5E068E5
:1013D000012800D112E033E1E068B8B10120C8F87B
:1013E0000000FFF719FE064605E000BFFFF714FEF8
:1013F000801B0228C0D828688007F7D52868216993
:1014000020F0F80040EAC10028600DE0C8F800A014
:10141000FFF702FE064604E0FFF7FEFD801B0228F0
:101420001FD828688007F7D42078000722D5864F78
:1014300087486169703771B101210160FFF7ECFDE8
:10144000064604E0FFF7E8FD801B022809D838684B
:101450008007F7D50EE0C0F800A0FFF7DDFD0646D7
:1014600005E082E0FFF7D8FD801B02287DD83868B0
:101470008007F7D42078400768D5DFF8CCB1002783
:101480000BF13C0BDBF80000C0000BD4DBF80010C4
:1014900041F08051CBF80010DBF80000012700F08C
:1014A000805000906B4E3068C00510D4306840F416
:1014B00080703060FFF7B0FD009005E0FFF7ACFDF5
:1014C0000099401A022850D83068C005F6D55E4E03
:1014D000A0686C3601280FD00528306810D020F0A5
:1014E00001003060306820F004003060A068B8B1BE
:1014F000FFF792FD00900FE0306840F00100F4E744
:1015000040F004003060F7E7FFF786FD0099411ACC
:1015100041F28830814266D830688007F4D50EE009
:10152000FFF77AFD009007E0FFF776FD0099411A7A
:1015300041F28830814256D830688007F4D42FB108
:10154000DBF8001021F08051CBF80010A069C8B37F
:101550003D49091D0968C1F3810102294AD00228C9
:10156000504607D0C8F8600000E03CE0FFF754FDAB
:1015700004463BE04746C8F86000FFF74DFD0646CD
:1015800005E000BFFFF748FD801B02282BD8286824
:101590008001F7D4D4E907010843A16A2E4A49081B
:1015A00002EB0141626A41EA8211084394F82C106F
:1015B00040EA0161C9F8001001203866FFF72CFDF0
:1015C000044606E03EE000BFFFF726FD001B0228B0
:1015D00009D828688001F7D534E000BFFFF71CFD6B
:1015E000001B022802D90320BDE8F88F286880017B
:1015F000F4D427E00128F7D0D9F80000E26900F41C
:10160000800191421CD1226A00F03F01914217D122
:1016100047F6C071626A0140B1EB821F10D1A26A25
:101620004FF0FF3300F4403103EB5202B1EB024FB5
:1016300006D194F82C1000F07060B0EB016F01D06F
:101640000120D1E70020CFE70438024000004742E4
:10165000800E4742007000400000FFFF70B504009C
:1016600009D0606A002540B125616561A56294F8E2
:10167000510040B10CE0012070BD6068B0F5827F80
:10168000F4D0E561F2E784F85050204600F044F8C9
:10169000022084F851002068016821F040010160B7
:1016A000A088218900F4827001F404410843A189D3
:1016B00001F400610843217C01F002010843217D0F
:1016C00001F001010843218B01F400710843217FDF
:1016D00001F03801084394F8201001F0800108431C
:1016E000218D01F40051084321680860A06904219C
:1016F00001EA104094F8241001F010010843216819
:1017000048602068C16921F40061C16165650120FC
:1017100084F85100002070BD10B586B00446142135
:101720006846FEF738FE13492068884220D11248E7
:101730000021026842F480520260006800F4805088
:1017400005900D481438026842F0010202600068FA
:1017500000F001000590E02000900220CDE9010199
:10176000032003900520049069460448FFF75CFBC2
:1017700006B010BD00300140443802400000024075
:1017800010B5401EB0F1807F01D3012010BD4FF095
:10179000E02460610F21601700F099FA0020A06139
:1017A00007202061002010BDFEE700000F4810B5A3
:1017B0000D4901600621416000214FF40032816033
:1017C000C0E903121201426101760122427682765B
:1017D000C27601774177FFF780F9002803D0BDE892
:1017E0001040FEF796BE10BD006400403804002093
:1017F0000F4810B50D4901600621416000214FF4EA
:1018000000328160C0E903121201426101760122B7
:1018100042768276C27601774177FFF75EF900283B
:1018200003D0BDE81040FEF774BE10BD0068004054
:1018300060040020114808B5016841F0040101600E
:10184000016801F004010091016841F0800101602C
:10185000016801F080010091016841F0010101601F
:10186000016801F001010091016841F0020101608D
:10187000006800F00200009008BD0000303802400F
:10188000104810B50E4901604FF48271416000218B
:101890008160C1604FF400720161C0E9051210223D
:1018A000C0E90721416281620A21C162FFF7D6FEC9
:1018B000002803D0BDE81040FEF72BBE10BD00008D
:1018C0000030014088040020FEE7000070B5254C80
:1018D000254D264E94ED000AD5ED000A012130EE8B
:1018E000600AD6ED000A30EE200ABDEEC00A10EE06
:1018F000100A00F0F5F894ED000AD5ED000A022177
:1019000030EE200AD6ED000A30EE200ABDEEC00A05
:1019100010EE100A00F0E4F895ED000AD4ED000A8C
:10192000032130EE600AD6ED000A30EE200ABDEE4B
:10193000C00A10EE100A00F0D3F894ED000AD5EDBD
:10194000000A0421B1EE400A30EE600AD6ED000A2A
:10195000BDE8704030EE200ABDEEC00A10EE100A5D
:1019600000F0BEB8000000200400002008000020A5
:10197000FEE7704730B587B0054600200092029020
:10198000CDE903030C462846FEF793FFC3B2002BB4
:10199000F9D00123224669462846FEF721FE002899
:1019A00000D0022007B030BD5FF0010202F50073E5
:1019B00098420DD1084BC2EBC20018440B6840F8A6
:1019C000073D8B88838089798171D0B200F01CB883
:1019D000521C092AEADB704720050020C0EBC00139
:1019E0000748084410F8051D4078CA0904D0054A84
:1019F00002EB01210844704700EB01207047000012
:101A0000200500200100FFFF30B5411E174AC1EB41
:101A1000C1039C18D25C647888B004EB0223134C99
:101A20004DF82130203C401E54F821209D1AA4F18D
:101A30002002B5F5805F52F8200003DBA0F5F850D6
:101A4000FF3805E015F5805F04DC41F6FF7528449A
:101A500042F8210044F8213052F82100034A18448A
:101A6000383242F8210008B030BD000020050020C7
:101A700010B54A1E072A29D8154A904202DD524263
:101A8000904200DB104604290CD8124B040A03EBE9
:101A900041014FF4007201F8024D082348700D49CE
:101AA0000D480FE00B4B091FC9B2083B03EB410186
:101AB000040A01F8024D40F2FF124870054908235C
:101AC00008390648FFF756FF002010BD012010BD61
:101AD000F0D8FFFF20000020380400206004002020
:101AE00070B50D4600EE100A4B496A1ED2B2B8EE30
:101AF000C00A2DED048B01EB8214E8B284ED000ADC
:101B0000FFF76CFF00EE100AB8EEC00A84ED010A80
:101B100094ED020A84ED030A94EC020A30EE608A26
:101B200084ED028AA06B00F0F1F941EC190B18EE7C
:101B3000100A00F0EBF941EC100BFEF7EDFC53EC52
:101B4000192B51EC100B00F01BF903D29FED330A57
:101B500084ED020A94ED040AD4ED020A30EE200A64
:101B600084ED040AD4ED0F0AB4EEE00AF1EE10FAA7
:101B700006DAF1EE600AB4EEE00AF1EE10FA01D8EE
:101B8000B0EE600A84ED040A94ED050AD4ED020A71
:101B900020EE200A84ED0A0A94ED060AD4ED040A28
:101BA00020EE200A84ED0B0A94ED020AD4ED030A1C
:101BB00030EE600AD4ED070A20EE200A84ED0C0A0C
:101BC000D4ED0A0A94ED0B1A70EE810A30EE800A09
:101BD00084ED0D0AD4ED080AB8EEE01AB4EEC10A9D
:101BE000F1EE10FA08DAD4ED090AB8EEE01AB4EE14
:101BF000C10AF1EE10FA01D8B8EEE00AE9B284EDBC
:101C00000D0ABDEEC00ABDEC048B10EE100ABDE853
:101C10007040FFF72DBF00002800002000000000EA
:101C20007047FFF7FFB9000030B593B03021684628
:101C3000FEF7B1FB14210CA8FEF7ADFB1D480025F3
:101C4000016841F080510160006800F080501190FF
:101C50001948016841F4804101600068022400F4E1
:101C6000804011900120039010200490009406946D
:101C70000820CDE90750A820CDE9090404200B90E5
:101C80006846FFF735FB08B172B6FEE70CA90F20D6
:101C900081E831004FF4A0500F904FF48050109025
:101CA00005210CA8FFF758FA002801D072B6FEE70C
:101CB00013B030BD40380240007000400248016857
:101CC00041F470010160704788ED00E0FEE709070C
:101CD000090E002804DB00F1E02080F800147047B2
:101CE00000F00F0000F1E02080F8141D70470000A4
:101CF000502809D108880209044802804A88428095
:101D00008A888280C988C180704700001000002046
:101D1000FFF790F9FFF788FFFFF78CFDFFF746FD0F
:101D2000FFF766FDFFF7ACFD0748FEF7B1FB07487C
:101D3000FEF7AEFBFEF718FCFEF730FCFFF7C6FD22
:101D40000120FFF75FF8F5E7380400206004002069
:101D500081F00041704780F00040704721F0004161
:101D6000704720F000407047491058BFC1F1404112
:101D70005B1058BFC3F140438B42EFF300807047C4
:101D800051EA030C17D41CF5801F58BFBCF5801F07
:101D900000F10680994218BF704708BF9042704713
:101DA00007D711F5801F58BF13F5801F19D499422A
:101DB0007047894270471CF5801F08D5BCF5801F0D
:101DC000F7D58B4218BF704708BF824270474FF467
:101DD000001C1CEB410F38BF1CEB430F01D28B42A0
:101DE000704770B500F008F8922449004FF0005198
:101DF0004FF08053FFF7B8BF0EF1020E2EF0030E26
:101E00005EF8046B364205D4012A43EB030515F551
:101E1000001F12D8012841EB010C1CF5001F0CD843
:101E20000ED14FEAD17C15F5001F0CEB4C0C0CF1D8
:101E3000020C08BF4CEBD37C04E04FF0080C01E02F
:101E40004FEAD37C0CEB4C0526FA05F606F00706A4
:101E5000B6F1040C06D20EEB860CBDE870404CF0D7
:101E6000010C6047DFE80CF0090B02024FF0004163
:101E70004FF00000A1F5002170BD19461046012861
:101E800051EB010418BFD4F5001484BF002001F009
:101E9000004170BD0808A0F500114FEA31017047FC
:101EA00053EA010C17D41CF5801F58BFBCF5801FE6
:101EB00000F106808B4218BF704708BF824270470E
:101EC00007D713F5801F58BF11F5801F19D48B4217
:101ED00070479B4270471CF5801F08D5BCF5801FDA
:101EE000F7D5994218BF704708BF904270474FF42A
:101EF000001C1CEB430F38BF1CEB410F01D2994271
:101F000070470FB40CBC03BCFFF76BBF43004FEA34
:101F1000D30C4FEA3C0C43401FBF40070CF160510B
:101F200013F0FE4F70471CF0006F03D100200CF03F
:101F3000004170470CF0004343EA507010B540EA8E
:101F4000CC0000F00EF800BF000000924FEA000144
:101F5000FFF7A0BF4FF000414FF00000A1F50021B6
:101F600070470EF1020E2EF0030E5EF8044B244271
:101F700004D44FEA4102B2F17F4F11D84FEA400337
:101F8000B3F17F4F0CD80ED14FEAD07CB2F17F4F26
:101F90000CEB4C0C0CF1020C08BF4CEBD17C04E0B8
:101FA0004FF0080C01E04FEAD17C0CEB4C0324FA13
:101FB00003F404F00704B4F1040C06D20EEB840C15
:101FC000BDE810404CF0010C6047DFE80CF007085A
:101FD00002024FF00040A0F5800010BD084642000C
:101FE00018BFD2F1807288BF00F0004010BD4FF0E2
:101FF0004070E1EE100A7047000000000000000091
:102000000102030406070809282000080000002038
:1020100038040000C4010008C4200008380400206F
:10202000A007000020020008013C25D7A39C4143E3
:10203000803F1B803E040412C1FFFF1A20240316B8
:102040007A441AA81C610934400E37CC4166666692
:10205000800809389A999B41CDCCCC3D8011093D2F
:10206000C069400B7C40418009344085CDCCCC3DDB
:1020700023B0360B1250C94013C8420414409C468A
:102080000D600AD7233C4031091540080938CDCCF2
:102090004C400AD7A33B400B3DCC3DC00E363E6FB3
:1020A00012833A80314A3FC00B182041400B184838
:1020B00043C04B4C4040091A802BFA444032018205
:0420C000101324F4E1
:040000050800018965
:00000001FF
