:020000040800F2
:100000002828002079030008B32700084F2500089E
:10001000B1270008C3050008212E000800000000D9
:10002000000000000000000000000000B90200080D
:10003000C50500080000000015030008B12C0008E9
:100040009303000893030008930300089303000838
:100050009303000893030008930300089303000828
:100060009303000893030008930300089303000818
:100070009303000893030008930300089303000808
:1000800093030008930300089303000893030008F8
:1000900093030008CD0500089303000893030008AC
:1000A00093030008930300089303000893030008D8
:1000B00093030008412D00089303000893030008F0
:1000C00093030008930300089303000893030008B8
:1000D00093030008930300089303000893030008A8
:1000E0009303000893030008930300089303000898
:1000F0009303000893030008930300089303000888
:100100009303000893030008930300089303000877
:100110009303000893030008930300089303000867
:100120009303000893030008930300089303000857
:100130009303000893030008930300089303000847
:100140009303000893030008930300089303000837
:100150009303000893030008930300089303000827
:100160009303000893030008930300089303000817
:100170009303000893030008930300089303000807
:1001800093030008930300089303000893030008F7
:1001900093030008000000002506000893030008F0
:1001A00085060008930300089303000893030008E2
:1001B00093030008930300089303000893030008C7
:1001C00093030008930300089303000893030008B7
:1001D000930300089303000800F002F800F05CF8B5
:1001E0000AA090E8000C82448344AAF10107DA4592
:1001F00001D100F051F8AFF2090EBAE80F0013F088
:10020000010F18BFFB1A43F001031847504F0000BD
:10021000704F00000A444FF0000C10F8013B13F03F
:10022000070408BF10F8014B1D1108BF10F8015B4F
:10023000641E05D010F8016B641E01F8016BF9D142
:1002400013F0080F1EBF10F8014BAD1C0C1B09D199
:100250006D1E58BF01F801CBFAD505E014F8016B0B
:1002600001F8016B6D1EF9D59142D6D3704700009D
:100270000023002400250026103A28BF78C1FBD8AF
:10028000520728BF30C148BF0B6070471FB504F04C
:10029000CEFE1FBD10B510BD00F059F91146FFF795
:1002A000F5FF02F0A1FE00F077F903B4FFF7F2FFCB
:1002B00003BC00F07FF900002C4B19680868B0E817
:1002C000F04F80F30988BFF36F8F4FF0000080F389
:1002D000118870470000000008480068006880F33B
:1002E00008884FF0000080F3148862B661B6BFF34F
:1002F0004F8FBFF36F8F00DF00BF00BF08ED00E03E
:10030000DFF80C00016841F470010160704700BF24
:1003100088ED00E0EFF30980BFF36F8F134B1A688D
:100320001EF0100F08BF20ED108A20E9F04F10607A
:1003300009B44FF0500080F31188BFF34F8FBFF323
:100340006F8F03F051FF4FF0000080F3118809BC5C
:1003500019680868B0E8F04F1EF0100F08BFB0EC45
:10036000108A80F30988BFF36F8F7047B8040020AC
:10037000EFF30580704700000948804709480047AF
:10038000FEE7FEE7FEE7FEE7FEE7FEE7FEE7FEE745
:10039000FEE7FEE704480549054A064B70470000A2
:1003A000312D0008D901000828220020282800202B
:1003B0002824002028240020032A40F2308010F056
:1003C000030C00F0158011F8013BBCF1020F6244F0
:1003D00098BF11F801CB00F8013B38BF11F8013B81
:1003E000A2F1040298BF00F801CB38BF00F8013B2E
:1003F00011F0030300F05780083AC0F0088051F86C
:10040000043B083A51F804CBA0E80810F5E7121DA8
:100410005CBF51F8043B40F8043BAFF30080D207C7
:1004200024BF11F8013B11F801CB48BF11F8012B93
:1004300024BF00F8013B00F801CB48BF00F8012BB6
:10044000704702F0FF0343EA032242EA024200F04F
:100450005EB84FF0000200B5134694469646203928
:1004600022BFA0E80C50A0E80C50B1F12001BFF46D
:10047000F7AF090728BFA0E80C5048BF0CC05DF8D3
:1004800004EB890028BF40F8042B08BF704748BF21
:1004900020F8022B11F0804F18BF00F8012B704795
:1004A00070477047704710B5203AC0F00B80B1E834
:1004B0001850203AA0E81850B1E81850A0E8185099
:1004C000BFF4F5AF5FEA027C24BFB1E81850A0E8A2
:1004D000185044BF18C918C0BDE810405FEA827CBC
:1004E00024BF51F8043B40F8043B08BF7047D207D3
:1004F00028BF31F8023B48BF11F8012B28BF20F874
:10050000023B48BF00F8012B70474FF0000204295E
:10051000C0F0128010F0030C3FF49DAFCCF1040C3E
:10052000BCF1020F18BF00F8012BA8BF20F8022B66
:10053000A1EB0C01FFF78FBF5FEAC17C24BF00F87D
:10054000012B00F8012B48BF00F8012B70477546BE
:1005500000F02CF8AE4605006946534620F007002F
:10056000854618B020B5FFF715FFBDE820404FF0D5
:1005700000064FF000074FF000084FF0000B21F08D
:100580000701AC46ACE8C009ACE8C009ACE8C0095A
:10059000ACE8C0098D46704710B50446AFF3008043
:1005A0002046BDE81040FFF780BE000000487047BD
:1005B000C821002001491820ABBEFEE7260002003A
:1005C0007047FEE7704772B6FEE70000014800F092
:1005D00064BA00001807002030B587B00024054633
:1005E0000220CDE902400120CDE90404019401A9D3
:1005F0002846069400F08DF938B9022200231146EE
:100600002846009400F0B3F910B1022007B030BDC5
:10061000284600F0EBFC00220121284600F0E4F817
:100620000020F3E7014800F038BA00007C07002002
:1006300030B587B000240221CDE90241CDE9041490
:100640000194054601A9069400F063F938B9022225
:10065000002311462846009400F089F910B10220C9
:1006600007B030BD064924200860284600F0BEFCD3
:1006700000220821284600F0B7F80020F0E700002B
:1006800080A40040014800F008BA0000E007002004
:10069000F0B5D1E901650C692C430D68BEB145F098
:1006A00080452C43D1E90665354391F820704E69A9
:1006B000406D46EA07663543CE6803EBC303354316
:1006C00000EBC3000023E0E802450C4D0FE044EAD4
:1006D0008544E7E7D418D65CE77846EA0766A7784A
:1006E00064783F0447EA0424264340C01B1DCC68BD
:1006F00005EB144424789C42ECD8F0BDF850000877
:10070000F0B589B00E4607461D46144624216846BA
:10071000FFF79FFE009400242804CDE902400194D5
:100720000494059406940794324669463846089422
:1007300000F0CAF8002800D0012009B0F0BD000088
:1007400070B5134D13492DED028BB5F91C000C68E3
:100750001938604304F000FC9FED0F8B53EC182B0D
:1007600004F0A2FA04F06EFA0D490860B5F91E0013
:100770001938604304F0F0FB53EC182B04F094FAA2
:1007800004F060FA07490860BDEC028B70BD000000
:1007900036060020640400200000000000A0644031
:1007A000680400206C0400200A4810B50A49B0F91A
:1007B000200009681938484304F0CEFB9FED071B61
:1007C00053EC112B04F070FA04F03CFA0549086070
:1007D00010BD000036060020640400200000000068
:1007E00000A064407004002030B590F85C30012B0C
:1007F00007D0022B05D0016E41F0020101660120F5
:1008000030BD0468A36D4D0701D0DD071DD011F088
:10081000380F01D09D0718D511F4E07F01D05D0796
:1008200013D511F4F05F01D01D070ED511F4604F00
:1008300001D0DD0609D511F4403F01D09D0604D555
:1008400011F47C0F05D05D0603D4E56D45F001057C
:10085000E5654C0701D0DC071DD111F0380F01D040
:100860009C0718D411F4E07F01D05C0713D411F475
:10087000F05F01D01C070ED411F4604F01D0DC06EC
:1008800009D411F4403F01D09C0604D411F47C0F2C
:1008900006D05B0604D50368DC6D44F00204DC6519
:1008A0000B0604D5036853F8DC4F14431C60CB05DA
:1008B00004D5036853F8E04F14431C600068426D90
:1008C0000A434265002030BD70B5044690F85C00D4
:1008D000022803D0206E40F0080007E02068D0F81E
:1008E000C4309B0205D5206E40F4007020660120C4
:1008F00070BDD0F8C400C0F301452B462046FFF779
:10090000C7FE21680120A840C1F8CC00A0650020E6
:1009100070BD10B590F85C20012A07D0022A05D0DE
:10092000016E41F002010166012010BD0A687AB132
:100930000B7B0A690C7A42EA43734A69406C496846
:1009400042EA847200EBC100C0E90032002010BD11
:100950000B7A4A690C8A42EA83720B7B006CDB06D5
:10096000496843EA04431A4340F82120EEE730B5D2
:1009700090F85C50039C012D05D0016E41F00401FC
:100980000166012030BD0901006841EA820141EAA7
:10099000430150F8802F214322F03F0211430160B0
:1009A000002030BD70477047F0B590F85C40022CD5
:1009B00003D0016E41F008014DE0046840293DD0AC
:1009C000D4F898502D0743D0D4F89840C4F30126AA
:1009D000D0F84C4006EBC60504EBC504256815F0BD
:1009E00080455560256839D025F06045156025683B
:1009F000284F05F00055956020CC05F000451561A5
:100A000034F8045BADB2D56154F8045C05F470258C
:100A1000D56054F8045C05F48015556154F8045C05
:100A200005F40015956154F8045CC5F3066515627C
:100A300054F8045CED0F5562002518E0D4F890508E
:100A40002D0705D0D4F89040C4F30126846CC1E78B
:100A5000016E41F4807101660120F0BDC5F38A4545
:100A6000C4E700BF14F805C003F805C06D1CD2F838
:100A70000CC007EB1C4C9CF800C0AC45F2D80068D9
:100A8000402903D0C0F89C600020F0BDC0F89460FD
:100A9000FAE70000F850000870472DE9F0470446D7
:100AA0000068016D466D01F4E0510E40016D476D27
:100AB00001F007010F40016D426D01F0380102EABB
:100AC0000108016D456D01F471010D40016D426D2C
:100AD00001F4602102EA0109016D490607D5416D63
:100AE000490604D5402101652046FFF7D5FF20685F
:100AF000016DC9050DD5416DC9050AD5D0F8D820BD
:100B0000D0F8E01011404FF480720265204600F0EA
:100B100085FA2EB1206806653146204600F080FA3D
:100B20002FB1206807653946204600F031FAB8F148
:100B3000000005D0216808654146204600F03FFAD4
:100B40002068016D890508D5416D890505D54FF4EB
:100B500000710165204600F064FA2068016D090605
:100B60000CD5416D090609D5D0F8D420D0F8DC1099
:100B7000114080220265204600F051FA2068016D84
:100B8000890408D5416D890405D54FF400510165EC
:100B9000204600F042FA2068016D090408D5416D35
:100BA000090405D54FF400410165204600F034FAF0
:100BB0002068016D490409D5416D490406D54FF4FB
:100BC00080410165206E40F080002066B9F1000090
:100BD00005D02168086549462046FFF7E4FE25B1A7
:100BE00020680565206E28432066206E002802D00C
:100BF0002046FFF7D7FEBDE8F08700002DE9F04161
:100C0000040006D0DFF8F48194F85C00002518B1E8
:100C100007E00120BDE8F08184F85D50204600F037
:100C2000F9F82068816921F01001816100F028FB4A
:100C30000646032705E000BF00F022FB801B0A28C0
:100C400011D8206880690007F6D42068816941F0D6
:100C50000101816100F014FB06460BE000F010FB7F
:100C6000801B0A2806D9206E40F00100206684F817
:100C70005C70CEE720688069C007EFD0206881698A
:100C800041F0020181612168414502D15C496068FF
:100C90000860207C01282068816937D041F040013C
:100CA0008161607C01282068816932D021F4804113
:100CB0008161A07C0128206881692DD041F4805198
:100CC000816120688169A26821F4407111438161CA
:100CD0002068816921F0A40181612068016921F007
:100CE00010010161E068012819D010B302281BD05F
:100CF0002068816941F0800181612068016941F0CB
:100D000010010161E06803280ED012E021F04001DB
:100D1000C6E741F48041CBE721F48051D0E7206859
:100D2000816941F0040103E02068816941F02001FC
:100D30008161207EE26940066FF0FF0101EB022233
:100D4000A0F100701043226AA38A521E10430A02C7
:100D500002EB034318432368D861A068B0F5407FD5
:100D600010D1D4E90A0301EB0321401E0843216B93
:100D7000131303EB01110843A18C02EB014108435B
:100D80002168C860206850F8C01FE26B1143016001
:100D90001D4A21681B48914200D11C481C4A9142BF
:100DA00001D100F5D460206451F8802FA38E22F485
:100DB000F81242EA03420A6000F17001616421689E
:100DC00051F8802F94F8383022F0706242EA0362C2
:100DD0000A6000F1B001A164D831E164D831216525
:100DE00018316165D83100E020C08842FCD3A56588
:100DF0002566012084F85C0000200BE700640040B9
:100E00000065004000A400400068004050A700407A
:100E1000006C00402DE9F0439BB00446142115A856
:100E2000FFF717FB54216846FFF713FB514B20686F
:100E3000991400254A03504E0227504C4FF00908E0
:100E400098422DD168460E92009100F03FFB08B108
:100E5000FFF7B9FB3068401C3060012807D1A06D56
:100E600040F00070A065A06D00F000701A90E06C7A
:100E700040F00800E064E06CCDE9167500F0080071
:100E80001A900320CDE91858159015A93C4800F098
:100E9000C9F800220521152000F080FA152031E064
:100EA000384BDFF8E490984231D168460E920091B9
:100EB00000F00CFB08B1FFF786FB3068401C306087
:100EC000012807D1A06D40F00070A065A06D00F072
:100ED00000701A90E06C40F00200E064E06CCDE934
:100EE000167500F002001A906020CDE91858159090
:100EF00015A9484600F096F800220521562000F07A
:100F00004DFA562000F03CFA1BB0BDE8F0831F4BB1
:100F10009842F9D168460E92009100F0D7FA08B1D4
:100F2000FFF751FB3068401C3060012807D1A06DED
:100F300040F00070A065A06D00F000701A90E06CA9
:100F400040F00200E064E06CCDE9167500F00200AC
:100F50001A90182015900B20CDE9185015A9484675
:100F600000F060F800220521582000F017FA582000
:100F7000C8E7000000640040A40400200010024004
:100F8000000C00480068004000040048006C00406D
:100F900000B58DB000210A910B910AAB6A46402141
:100FA000FFF702FD0198002807D10098A0F2012167
:100FB000072902D80AA901F01BFC0DB000BD00B53D
:100FC0008DB000210A910B910AAB6A464121FFF7CF
:100FD000EBFC0198002807D10098A0F20121072915
:100FE00002D80AA901F004FC0DB000BD90F85C1015
:100FF000012905D0016E41F004010166012070470E
:10100000022180F85C1001688A6922F001028A617D
:101010000021016608467047704770477047704767
:10102000704770472DE9F04FDFF82092002301262A
:101030000324A9F1040B85B00F2709F1040AABF1D1
:10104000040EFAE006FA03F52A407CD091F804C0B9
:101050000CF0030CBCF1010F02D0BCF1020F26D141
:10106000D0F808C0CDF800C04FEA430C04FA0CF8E1
:10107000CDF810C0DDF800C02CEA080CCDF800C097
:10108000D1F80C80DDF810C008FA0CF8DDF800C0CB
:1010900048EA0C08C0F80880D0F804C02CEA050C17
:1010A0000D79C5F300159D4045EA0C0545600D79A5
:1010B000ED43AD070ED0C5684FEA430804FA08FCBB
:1010C00025EA0C05D1F808C00CFA08FC4CEA050C1E
:1010D000C0F80CC00D7905F00305022D16D1DD080E
:1010E00000EB850CCDF808C0DCF820805D074FEAE6
:1010F000D56C07FA0CF528EA05080D6905FA0CF518
:10110000DDF808C045EA0805CCF8205005684FEA2C
:10111000430CCDF808C004FA0CFC25EA0C0591F844
:1011200004C00CF00308DDF808C008FA0CF848EA1F
:101130000508C0F800804D6815F4403F7CD0444D50
:10114000D5F860C000E077E04CF0010CC5F860C055
:101150002D6E23F0030C05F0010500953D4D65440F
:101160000295AD684FEA837C4FEA1C7807FA08FCC9
:1011700025EA0C05B0F1904F06D0DFF8DCC06045E1
:1011800005D14FF0010C20E04FF0000C1DE0DFF81E
:10119000CCC0604502D14FF0020C16E0DFF8C0C0B1
:1011A000604502D14FF0030C0FE0DFF8B8C0604596
:1011B00002D14FF0040C08E0DFF8ACC0604502D16A
:1011C0004FF0050C01E04FF0060C0CFA08FC4CEA5D
:1011D000050C029DC5F808C0D9F80050CC46D1F8DE
:1011E000048095435FEAC82800D51543CCF8005029
:1011F000DAF80050D446D1F8048095435FEA882895
:1012000000D51543CCF80050DBF80050DC46D1F88F
:10121000048095435FEA883800D51543CCF8005028
:10122000DEF80050F446D1F8048095435FEAC838F0
:1012300000D51543CCF800505B1C0A6832FA03F560
:101240007FF400AF05B0BDE8F08F00000804014056
:10125000001002400000014000040048000800485F
:10126000000C0048001000480014004800690840C5
:1012700000D0012070470AB18161704781627047D8
:101280000148806870470000A80400200248816877
:101290004268114481607047A804002010B5002402
:1012A000032000F09BF80F2000F008F808B101249B
:1012B00001E000F047F8204610BD000030B50546BB
:1012C0001B4887B0816D41F002018165806D06A9E0
:1012D00000F00200009001A800F066FB00F084FB23
:1012E0001449154AB0FBF1F11448491E02604160EF
:1012F00040F2E7320021C0E90321816000F0A2FF43
:10130000040012D10D4800F0CFFF04000DD11D20C4
:1013100000F036F8102D07D2002229461D2000F0DB
:101320003DF80748056000E0012407B0204630BDC5
:101330000010024040420F0000040040A8080020B6
:10134000A80400200D4808B5016E41F001010166B6
:10135000016E01F001010091816D41F080518165C4
:10136000806D002200F0805000900F21901E00F050
:1013700015F8BDE8084000F0A1B8000000100240D8
:10138000002809DB00F01F02012191404009800084
:1013900000F1E020C0F8001170470000F0B40E4BDF
:1013A0001B680C46C3F30223C3F10705042D00D9C3
:1013B0000425191D072901D2002300E0DB1E0126A8
:1013C00006FA05F1491E214099409E40761E1640BE
:1013D0003143F0BC01F025BD0CED00E0064900F002
:1013E000070208684FF6FF03184040EA0220034A4C
:1013F00010430860704700000CED00E00000FA05A3
:101400002B492C4B0A6832214A432B4940B1B0F595
:10141000007F086829D020F4C06040F480602CE090
:101420000868C0F34120022804D051F8800F20F44E
:10143000807022E0D1F8800020F48070C1F8800034
:10144000086820F4C06040F400700860B2FBF3F05C
:10145000401C00E0401E4A69520501D50028F9D120
:10146000486940050AD503207047C0F3412002288F
:1014700006D051F8800F40F480700860002070475B
:10148000D1F8800040F48070C1F88000086820F432
:10149000C06040F400700860B2FBF3F0401C00E054
:1014A000401E4A695205DBD50028F9D1D8E7000073
:1014B000B404002040420F000070004002488168E0
:1014C00041F4804181607047007000402DE9F8438D
:1014D000044600680026BB4D00035ED5A86D0027BA
:1014E000C00008D4A86D40F08050A865A86D012701
:1014F00000F080500090DFF8D092D9F8001041F44D
:101500008071C9F80010FFF7BBFE804606E000BFFF
:10151000FFF7B6FEA0EB080002282BD8D9F8000090
:10152000C005F5D5D5F8900010F4407014D0216DA9
:10153000814211D0D5F89000D5F8901020F4407079
:1015400041F48031C5F89010D5F8901021F4803125
:10155000C5F89010C5F89000C00711D0FFF790FEB5
:10156000804641F2883907E0FFF78AFEA0EB0801C8
:10157000494501D903260BE0D5F890008007F3D543
:10158000D5F89000216D20F440700843C5F8900014
:101590001FB1A86D20F08050A8652078C00707D043
:1015A000D5F88800616820F003000843C5F888007A
:1015B0002078800707D5D5F88800A16820F00C00B6
:1015C0000843C5F888002078400707D5D5F888007B
:1015D000E16820F030000843C5F888002078000753
:1015E00007D5D5F88800216920F0C0000843C5F868
:1015F00088002078C00607D5D5F88800616920F4F6
:1016000040700843C5F888002078800607D5D5F8D3
:101610008800A16920F440600843C5F8880020785C
:10162000400607D5D5F88800E16920F4405008430A
:10163000C5F888002078000607D5D5F88800216A0B
:1016400020F440400843C5F888002088C00507D52D
:10165000D5F88800616A20F440300843C5F8880056
:101660002068800307D5D5F89C00A16A20F003000C
:101670000843C5F89C002088800507D5D5F8880068
:10168000E16A20F440200843C5F88800208840051E
:101690000FD5D5F88800216B20F440100843C5F819
:1016A0008800206BB0F5801F03D1E86840F48010FB
:1016B000E860208800050FD5D5F88800616B20F41C
:1016C00040000843C5F88800606BB0F5800F03D177
:1016D000E86840F48010E8602088C0040FD5D5F891
:1016E0008800A16B20F040700843C5F88800A06B0B
:1016F000B0F1807F03D1E86840F48010E860208872
:101700004FF0006180040ED5D5F88800E26B20F020
:1017100040601043C5F88800E06B884203D1E86858
:1017200040F48010E860208840040ED5D5F8880089
:10173000226C20F040601043C5F88800206C88427D
:1017400003D1E86840F48010E860208800040FD5D9
:10175000D5F88800616C20F040500843C5F8880037
:10176000606CB0F1805F03D1E86840F48030E860DD
:101770002068C0030FD5D5F88800A16C20F0404048
:101780000843C5F88800A06CB0F1804F03D1E86829
:1017900040F48030E860206840030FD5D5F89C0005
:1017A000E16C20F440100843C5F89C00E06CB0F5F3
:1017B000001F03D1E86840F48010E8603046BDE8BF
:1017C000F883000000100240007000402DE9F0474F
:1017D0000E4605004FF0000725D0DFF8AC81D8F8A1
:1017E000000000F00F00B0420CD2D8F8001021F039
:1017F0000F013143C8F80010D8F8000000F00F00C6
:10180000B04210D12968614CC80741F2883A5AD0D9
:101810006868DFF87C91032808D0022820682DD062
:10182000400500282CDB0120BDE8F08720688001FE
:10183000F9D5E06800F00302E068C0F30310401C33
:10184000032A19D0534A00BFB2FBF0F0E268C2F39A
:1018500006225043E268C2F34162521C5200B0FBC0
:10186000F2F0484517D9A06810F0F00F0CD08807A7
:1018700011D5A86840B10EE0474AE5E78003D0E7FC
:1018800000F0C4F8484506D9A06820F0F00040F008
:101890008000A0608027A068696820F003000843EA
:1018A000A060FFF7EDFC814606E000BFFFF7E8FC13
:1018B000A0EB090151453AD8A068696800F00C0016
:1018C000B0EB810FF2D12868810714D5400703D50A
:1018D000A06840F4E060A0602878000705D5A06803
:1018E00020F4605040F4E060A060A068A96820F097
:1018F000F000084304E0802F03D1A06820F0F0003E
:10190000A060D8F80010404601F00F01B14216D98E
:10191000016821F00F0131430160FFF7B1FC074678
:1019200007E000BFFFF7ACFCC11B514501D9032004
:101930007AE7D8F8000000F00F00B042F2D1287822
:10194000400705D5A068E96820F4E0600843A0607E
:101950002878000706D5A068296920F4605040EA7D
:10196000C100A06000F052F8A1680C4AC1F3031155
:10197000515C01F01F01C84009490860094800682E
:10198000BDE8F047FFF79ABC00200240001002407B
:1019900000B4C4040024F400001BB7000851000880
:1019A000B4040020A80400200F2202600C4A9368AF
:1019B00003F003034360936803F0F00383609368CC
:1019C00003F4E063C36092684FF4E06303EAD20279
:1019D00002610448006800F00F00086070470000D2
:1019E000001002400020024005480649006889684E
:1019F000054AC1F30221515C01F01F01C840704744
:101A0000B40400200010024018510008184910B515
:101A10008868C0F381021748012A0BD08A68164BE8
:101A2000C2F38102022A06D08A68C2F38102032A25
:101A300003D0002010BD184610BDCA6802F0030490
:101A4000CA68C2F30312521C032C02D0B0FBF2F09E
:101A500001E0B3FBF2F0CA68C968C2F30622504342
:101A6000C1F34161491C4900B0FBF1F010BD000019
:101A7000001002400024F400001BB7002DE9F843D9
:101A800004007AD02078FA4DC00747D0A868E968EA
:101A900000F00C0001F003010C2802D0082817D038
:101AA00001E0032914D06068B0F5803F17D0B0F58D
:101AB000A02F286817D020F480302860286820F4F0
:101AC000802028606068E0B1FFF7DAFB064614E08A
:101AD0002868800322D560680028D2D01EE02868DC
:101AE00040F48030EDE740F480202860F7E700BF45
:101AF000FFF7C6FB801B642870D828688003F7D5E1
:101B00000CE0FFF7BDFB064605E000BFFFF7B8FBA2
:101B1000801B6428F0D828688003F7D420788007D9
:101B20004CD5A868E96800F00C0001F003010C280E
:101B300002D004280DD001E002290AD0E068002874
:101B400028682BD040F480702860FFF799FB064688
:101B500019E02868400502D5E068002891D068683F
:101B6000217C20F0FE4040EA01606860C1480068C6
:101B7000FFF7A4FB002800D120E076E1FFF780FB0F
:101B8000801B0228B8D828684005F7D56868217CF2
:101B900020F0FE4040EA016068600FE020F48070B1
:101BA0002860FFF76DFB064605E000BFFFF768FB06
:101BB000801B0228A0D828684005F7D420780007A9
:101BC00029D560690028D5F8940013D040F00100B1
:101BD000C5F89400FFF754FB064606E090E000BF0E
:101BE000FFF74EFB801B022886D8D5F894008007AB
:101BF000F6D510E020F00100C5F89400FFF740FB97
:101C0000064604E0FFF73CFB801B022878D8D5F895
:101C100094008007F6D42078400761D5A86D00268F
:101C2000C00008D4A86D40F08050A865A86D0126BA
:101C300000F08050009090480168C90511D40168F7
:101C4000804641F480710160FFF71AFB074604E00B
:101C5000FFF716FBC01B022852D8D8F80000C005B9
:101C6000F6D5A068012815D00528D5F8900016D023
:101C700020F00100C5F89000D5F8900020F0040095
:101C8000C5F89000A06841F28838B8B1FFF7F8FABB
:101C900007460EE0D5F8900040F00100F0E740F074
:101CA0000400C5F89000F5E7FFF7EAFAC11B4145CB
:101CB00026D8D5F890008007F6D50CE0FFF7E0FABB
:101CC000074604E0FFF7DCFAC11B414518D8D5F8F8
:101CD00090008007F6D41EB1A86D20F08050A86552
:101CE0002078800629D5A0690028D5F8980013D05F
:101CF00040F00100C5F89800FFF7C2FA064606E07A
:101D000077E000BFFFF7BCFA801B022877D8D5F830
:101D100098008007F6D510E020F00100C5F8980083
:101D2000FFF7AEFA064604E0FFF7AAFA801B022886
:101D300065D8D5F898008007F6D4E069F0B3A968B3
:101D4000C1F38101032961D00228286820F0807046
:101D500028600BD0E86820F00300E860E868474995
:101D60000840E860FFF78CFA04464BE0FFF788FA7A
:101D7000064604E0FFF784FA801B02283FD8286853
:101D80008001F7D4F4E908016FF00F0202EB0111B2
:101D90000843218A5204490802EB4151A26841EAF2
:101DA00002210843217D4FF07E42490802EB416148
:101DB0000843217B40EAC160E96800E062E0304A04
:101DC00011400843E860286840F080702860E868A7
:101DD00040F08070E860FFF753FA044605E000BF6A
:101DE000FFF74EFA001B022809D828688001F7D5B2
:101DF00048E004E0FFF744FA001B022802D9032060
:101E0000BDE8F88328688001F4D43BE00128F7D0CE
:101E1000E868226A00F00301914226D1616A00F06D
:101E2000F0020901103991421FD1A26A00F4FE416B
:101E3000B1EB022F19D194F82C2000F07841B1EBCE
:101E4000C26F12D1218E00F4C00249084905A1F5E4
:101E50000011914209D194F8341000F0C060490893
:101E60004906A1F1007181420CD00120C8E70000B1
:101E700000100240A804002000700040FFFFEEFEAA
:101E80000C809F010020BBE770B5040009D0606A98
:101E9000002540B125616561A56294F85D0040B1FF
:101EA0000CE0012070BD6068B0F5827FF4D0E56180
:101EB000F2E784F85C50204600F05CF8022084F8D9
:101EC0005D002068016821F040010160E1684FF485
:101ED000E062914201D9002001E04FF48050B1F559
:101EE000706F02D0914200D0A562A188228901F4CE
:101EF000827102F404421143227C02F00202114377
:101F0000227D02F001021143228B02F40072114380
:101F1000227F02F03802114394F8202002F0800260
:101F20001143228D02F40052114322681160A1690D
:101F3000042202EA114194F8242000F4805002F0B7
:101F40001002114394F8342002F008021143A289D0
:101F500002F4706211430143206841602068C16946
:101F600021F40061C1612566012084F85D00002034
:101F700070BD000010B586B0044614216846FEF717
:101F800068FA1249206888421ED11148016E41F456
:101F900080510166016E01F480510591C16C41F0E0
:101FA0000101C164C06C694600F001000590E020A9
:101FB00000900220019000200290039005200490E0
:101FC0004FF09040FFF72EF806B010BD00300140F2
:101FD000001002402DE9F05F044690F85C000027F5
:101FE0000A9E1D4692468B464FF0010901280ED0ED
:101FF000012084F85C00FFF743F9804694F85D0007
:10200000616801280CD0B1F5827F07D102E002207F
:10201000BDE8F09FA16809B9042801D0022700E1BA
:10202000BBF1000F24D0BAF1000F21D005B394F812
:102030005D00042802D0052084F85D0000202066A1
:10204000C4F840A0A4F84650A4F84450C4F838B0EE
:10205000E587A587E0642065E0684FF4E061884289
:1020600001D8012D06D92068426822F4805205E08B
:102070000127D6E02068426842F48052426020681E
:102080000268520603D4026842F040020260E0682F
:102090008842606845D908B1012D3AD1A06B21680A
:1020A0000088C860A06B801CA063E08F401EE087A2
:1020B0002FE02068816889070FD5E18F69B1B9F1F8
:1020C000010F0AD1A16B0988C160A06B801CA063BD
:1020D000E08F401EE0874FF0000920688168C90743
:1020E0000FD0B4F8461061B1C068216C0880206C34
:1020F000801C2064B4F84600401EA4F846004FF04F
:102100000109FFF7BDF8A0EB0800B04201D3701C35
:1021100075D1E08F0028CCD1B4F846000028C8D192
:1021200076E008B1012D6CD1E08F0128A06B08D9B1
:1021300021680088C860A06B801CA063E08F801EAF
:1021400007E0216800780873A06B401CA063E08F53
:10215000401EE08755E02068816889071AD5E18F25
:10216000C1B1B9F1010F15D1E18F0129A16B07D9D7
:102170000988C160A06B801CA063E08F801E06E010
:1021800009780173A06B401CA063E08F401EE087BC
:102190004FF0000920688168C90728D0B4F84610BC
:1021A00029B3B4F84610012914D9C068216C0880FD
:1021B000206C801C2064B4F84600801EA4F8460001
:1021C000B4F84600012810D82068416841F48051D5
:1021D00041600AE0007B216C0870206C401C206488
:1021E000B4F84600401EA4F846004FF00109FFF77E
:1021F00047F8A0EB0800B04202D3701C01D018E0F1
:10220000BEB1E08F0028A6D1B4F846000028A2D1C4
:1022100042463146204600F057FC10B101272020ED
:102220002066012084F85D00002084F85C003846B8
:10223000EEE60327F5E77047704770477047704731
:102240007047704710B5040003D094F83D0010B1FA
:1022500007E0012010BD002084F83C00204600F07B
:1022600022F8022084F83D00211D206800F06EFD58
:10227000012084F8480084F83E0084F83F0084F888
:10228000400084F8410084F8420084F8430084F858
:10229000440084F8450084F8460084F8470084F838
:1022A0003D00002010BD704790F83D10012901D07D
:1022B00001207047022180F83D100168CA6842F091
:1022C0000102CA6000681349884214D0B0F1804FFF
:1022D00011D0114988420ED0104988420BD01049C4
:1022E000884208D00F49884205D00F49884202D061
:1022F0000E49884207D181680D4A1140062906D04F
:10230000B1F5803F03D0016841F001010160002078
:1023100070470000002C014000040040000800400D
:10232000000C0040003401400040014000500140DA
:1023300007000100704770B50446006801694FF05E
:102340000005C943890715D4C168C943890711D459
:10235000E91E0161012020772068806980072046FE
:1023600002D0FFF7E7FF04E000F0E3F8204600F0BA
:10237000E1F8257720680169C943490717D4C16886
:10238000C943490713D46FF004010161022020778B
:102390002068806910F4407F204602D0FFF7CAFF12
:1023A00004E000F0C6F8204600F0C4F82577206865
:1023B0000169C943090716D4C168C943090712D482
:1023C0006FF008010161042020772068C069800750
:1023D000204602D0FFF7AEFF04E000F0AAF8204646
:1023E00000F0A8F8257720680169C943C90617D409
:1023F000C168C943C90613D46FF0100101610820F8
:1024000020772068C06910F4407F204602D0FFF793
:1024100091FF04E000F08DF8204600F08BF825775E
:1024200020680169C943C90708D1C168C943C90700
:1024300004D1891E0161204600F07EF82068016900
:10244000C943090609D4C168C943090605D46FF018
:10245000800101612046FFF7EFFE20680169C94352
:10246000C90509D4C168C943090605D46FF4807150
:1024700001612046FFF7DFFE20680169C943490674
:1024800009D4C168C943490605D46FF04001016110
:10249000204600F05BF820680169C943890609D429
:1024A000C168C943890605D46FF020010161204647
:1024B000FFF7C3FE20680169C943C90209D4C16896
:1024C000C943C90205D46FF4801101612046FFF7AA
:1024D000B6FE20680169C943890209D4C168C943AD
:1024E000890205D46FF4001101612046FFF7A6FEB2
:1024F00020680169C943490209D4C168C943490236
:1025000005D46FF4800101612046FFF799FE206831
:102510000169C94309020BD4C168C943090207D440
:102520006FF4000101612046BDE87040FFF789BEED
:1025300070BD70477047000000680349884201D1B0
:10254000FEF7A4BE70470000000400407047FEE79D
:1025500010B5134811490022C0E900128260012120
:10256000C2600174417482741023C0E9051377239B
:10257000C3612823C0E9083104230524C0E90A34D3
:10258000C0E90C31C0E90E12FEF738FB002803D079
:10259000BDE81040FEF717B810BD00000064004011
:1025A0001807002010B5134811490022C0E9001295
:1025B00082600121C2600174417482741023C0E9F9
:1025C00005137723C3612823C0E9083104230524B8
:1025D000C0E90A34C0E90C31C0E90E12FEF70EFB67
:1025E000002803D0BDE81040FDF7EDBF10BD00008E
:1025F000006800407C07002010B5134811490022F4
:10260000C0E9001282600121C260017441748274C9
:102610001023C0E905137723C3612823C0E90831DB
:1026200004230524C0E90A34C0E90C31C0E90E12C4
:10263000FEF7E4FA002803D0BDE81040FDF7C3BF61
:1026400010BD0000006C0040E007002010B5124AE9
:102650000021124800F074FE114C0F4A0021206046
:102660002432104800F06CFE0B4A606048320021B2
:102670000D4800F065FE084AA0606C3200210B484E
:1026800000F05EFE044AE06090320021084800F04D
:1026900057FE206110BD000044500008A92C00081E
:1026A00090040020753C0008693C0008893C000843
:1026B000B1320008F0B587B014216846FDF7C9FEB5
:1026C0002548C16C41F02001C164C16C01F02001BA
:1026D0000591C16C41F00101C164C16C01F00101BF
:1026E0000591C16C41F00401C164C16C01F00401A9
:1026F0000591C16C41F00801C164C16C01F0080191
:102700000591C16C41F00201C164C06C4FF090466C
:1027100000F002000590002210213046FEF7ABFDCC
:102720000E4F002230213846FEF7A5FD012410206F
:10273000CDE90004022569463046CDE90245FEF7A1
:1027400071FC3020CDE9000469463846CDE90245E8
:10275000FEF768FC07B0F0BD00100240000800481A
:10276000124810B5104901604FF482714160002198
:102770004FF4E062C0E902124FF400720161C0E957
:1027800005121822C0E9072107224162C0E90A1296
:10279000016308214163FFF777FB002803D0BDE800
:1027A0001040FDF710BF10BD00300140440800206C
:1027B000FEE7FEE710B500F0DBFB01F06DFABDE8C7
:1027C000104000F04FB9000010B50648FDF704FFB7
:1027D0000548FDF72DFF0548FDF72AFFBDE810402D
:1027E00000F05CBD180700207C070020E0070020F7
:1027F0005FF0010202F5007398420DD1084BC2EB65
:10280000C20018440B6840F8073D8B8883808979A3
:102810008171D0B200F01CB8521C092AEADB704763
:10282000C0060020C0EBC0010748084410F8051D91
:102830004078CA0904D0054A02EB012108447047D8
:1028400000EB012070470000C00600200100FFFFE0
:1028500030B5411E174AC1EBC1039C18D25C6478A5
:1028600088B004EB0223134C4DF82130203C401E6D
:1028700054F821209D1AA4F12002B5F5805F52F88A
:10288000200003DBA0F5F850FF3805E015F5805F68
:1028900004DC41F6FF75284442F8210044F8213059
:1028A00052F82100034A1844383242F8210008B097
:1028B00030BD0000C00600200B490068096888424E
:1028C00004D108239A010949074809E00849096821
:1028D000884207D10549082340F2FF120831044815
:1028E000FDF70EBF704700001807002014000020FD
:1028F0007C070020042906D80C4A904202DD52428F
:10290000904200DB10464A1E072A0ED8042902D83E
:10291000030A074A04E0091F054A030AC9B208323C
:1029200002EB410101F8023D4870704700C0FFFF13
:102930001400002010B50C4600EE100A491EC9B262
:102940004648B8EEC00A01EB011100EB8103E0B28A
:1029500083ED000AFFF766FF00EE100AB8EEC00A2A
:1029600083ED010A93ED020A83ED030A93EC020A58
:1029700030EE600A83ED020AB5EEC00AF1EE10FAFD
:1029800001DAB1EE400AD3ED0F0AB4EEE00AF1EE3F
:1029900010FA03D29FED320A83ED020A93ED040A86
:1029A000D3ED020A30EE200A83ED040AD3ED100ABB
:1029B000B4EEE00AF1EE10FA06DAF1EE600AB4EED7
:1029C000E00AF1EE10FA01D8B0EE600A83ED040AD5
:1029D00093ED060AD3ED020A20EE200A83ED0B0ADE
:1029E00093ED070AD3ED040A20EE200A83ED0C0ACA
:1029F00093ED020AD3ED030A30EE600AD3ED080A24
:102A000020EE200A83ED0D0AD3ED0B0A93ED0C1A8C
:102A100070EE810A30EE800A83ED0E0AD3ED090ACA
:102A2000B8EEE01AB4EEC10AF1EE10FA08DAD3ED0E
:102A30000A0AB8EEE01AB4EEC10AF1EE10FA01D8B3
:102A4000B8EEE00AE1B283ED0E0ABDEEC00ABDE8C1
:102A5000104010EE100AFFF74DBF000024000020C8
:102A60000000000070B5174A0020154C034602F123
:102A70001E01155C15B1012D14D01DE0255C012D42
:102A80001AD10D5C6D1CEDB20D54072D14D90D4EED
:102A90000B5401253C36155456F820506D1C46F851
:102AA000205009E0255C3DB90D5C6D1CEDB20D5464
:102AB000072D01D90B541354401C1128D9DD70BDCA
:102AC0001A06002038050020F8B515460E460B46BC
:102AD0000092044600224FF4C05100F019F888B962
:102AE0003346002280212046009500F081F848B945
:102AF000334600224FF4C0612046009500F008F8EC
:102B0000002804D0206E40F0200020660320F8BD8D
:102B10002DE9FE4F4FF0000A984617460E46044630
:102B20000C9D8DF804A0FEF7ABFB411BA8EB010543
:102B3000FEF7A6FB814620684FF4C06B0C30029074
:102B40002A480068C0EBC00000EB8000000D68431D
:102B5000009043E05E4506D12FB9029800788DF8C9
:102B600004009DF80400B8F1FF3F37D0FEF788FB62
:102B7000A0EB0900A84203D215B1009858B32BE08E
:102B80002068416821F0E00141606068B0F5827F13
:102B90000BD1A068B0F5004F02D0B0F5806F04D122
:102BA0002068016821F040010160A06AB0F5005F73
:102BB00009D12068016821F4005101602068016892
:102BC00041F400510160012084F85D0084F85CA0AC
:102BD0000320BDE8FE8F0025401E0090206880681D
:102BE0003040B842B6D10020F3E70000B404002022
:102BF0002DE9F8431E46914688460446089DFEF797
:102C00003FFB401B351AFEF73BFB07462548006893
:102C1000C0F3CB30684338E0701C37D0FEF730FB90
:102C2000C01BA84203D215B1009860B32CE0206805
:102C3000416821F0E00141606068B0F5827F0BD10E
:102C4000A068B0F5004F02D0B0F5806F04D12068C5
:102C5000016821F040010160A06AB0F5005F09D170
:102C60002068016821F4005101602068016841F486
:102C700000510160012084F85D00002084F85C00B0
:102C80000320BDE8F8830025401E0090206881687D
:102C900038EA010004D000214945BDD10020F0E709
:102CA0000121F9E7B4040020012000F00DFBFBE74F
:102CB00010B54FF0E020006901F00EFE012803D0AE
:102CC000BDE8104001F03CBB10BD10B594B03821F8
:102CD0006846FDF7BEFB14210EA8FDF7BAFB0020E5
:102CE000FEF78EFB012000900004019002200324D7
:102CF000CDE907045021CDE90A100C900D900994FC
:102D00006846FEF7BBFE08B172B6FEE70F20CDE9BC
:102D10000E04002010901190129004210EA8FEF7CE
:102D200055FD002801D072B6FEE714B010BD0000BA
:102D30000248016841F470010160704788ED00E0CD
:102D40000148FFF7F8BA0000A80800202DE9F04F6D
:102D500002682A4B2A4E2B4FDFF8ACC02B4C2C4D6F
:102D60004FF0804B98420BD0584509D0B04207D065
:102D7000B84205D0604503D0A04201D0A84204D19A
:102D800022F070084A6842EA0802DFF88880DFF81B
:102D90008890DFF888A0984211D058450FD0B042F3
:102DA0000DD0B8420BD0604509D0A04207D04045B5
:102DB00005D0484503D0504501D0A84203D122F4A4
:102DC0004076CA6832434E6922F080023243026084
:102DD0008A68C2620A688262984209D0A04207D01B
:102DE000404505D0484503D0504501D0A84201D107
:102DF0000969016301214161BDE8F08F002C0140A8
:102E00000004004000080040000C00400034014075
:102E10000050014000400140004401400048014092
:102E2000FEE70907090E002804DB00F1E02080F826
:102E30000014704700F00F0000F1E02080F8141D2E
:102E40007047000010B51348134C00220369216835
:102E5000012B03D04369012B04D006E0C831216067
:102E6000026102E0C8392160426190F850004FF0E1
:102E70000501C00705D02068FFF75CFD062120682A
:102E800004E00020FFF756FD06210020BDE81040B9
:102E9000FFF750BD740500207404002070B525486C
:102EA000254D0022036A2968012B03D0836A012B78
:102EB00004D006E0C8312960026102E0C839296007
:102EC000426190F85400C00722D01C4E012400BF7C
:102ED00056F82400296848430121FFF72BFD56F8D6
:102EE0002400296848430221FFF724FD56F82400F6
:102EF000296848430321FFF71DFD56F8240029687F
:102F000048430421FFF716FD641C042CE0DD70BD6E
:102F100001210020FFF70EFD02210020FFF70AFD2E
:102F200003210020FFF706FDBDE8704004210020CA
:102F3000FFF700BD74050020780400207C04002009
:102F40000548016C012905D104498A6852428A600A
:102F50000021016470470000740500207C040020FB
:102F600003E00721491EC9B2FCD2401EF9D27047C6
:102F700010B520211948FEF779F901282DD000F06D
:102F800077F8174A174C78B10020107003E000BFA3
:102F900024F81100491C0729FADB124B0E3301E01B
:102FA0005854491C1A29FBDB1078002815D00D480D
:102FB000203800F0BBF800280FD00A482038807B6A
:102FC0007B280AD107490020B1F1200131F81020F7
:102FD00024F81020401C0728F8DB10BD000800482A
:102FE000080000200C060020FEF758F9FFF76DFEE0
:102FF000FFF760FBFFF7ACFAFFF7D4FAFFF7FCFA34
:10300000FFF7AEFBFFF7E0FB00F06CF9FFF71EFBEC
:1030100000F07AF9FEE70000104800210423018047
:103020000F49502291ED000ABCEEC00A10EE101AB2
:1030300041800C4991ED000ABCEEC00A10EE101A56
:103040008180094991ED000ABCEEC00A10EE101A09
:10305000C18001460548FDF753BB00000000002079
:10306000680400206C040020700400207C0700200D
:103070001CB50FA10522D1E90001CDE90001694687
:10308000302000F0C1F805226946102000F014F845
:10309000002069460A5CA52A03D1401CC0B205285D
:1030A000F8D3052801D001201CBD00201CBD000064
:1030B000A5A5A5A5A50000002DE9F04115460F46E0
:1030C00004464FF09048002210214046FEF7D3F806
:1030D000204600F0D3F80646002405E0FF2000F06B
:1030E000CDF83855641CE4B2AC42F7D3012210216C
:1030F0004046FEF7C0F83046BDE8F08170B50446A2
:103100004FF09045002210212846FEF7B4F82046E3
:1031100000F0B4F8FF2000F0B1F8044601221021BD
:103120002846FEF7A8F8204670BD000070B5064698
:1031300000240720FFF7E2FF05460146272000F0A4
:1031400084F8680615D56020FFF7D8FF04462128CB
:1031500005D2024631466120FFF7AEFF00E00024B1
:10316000FF21E22000F071F80349C5F3420081F825
:103170002100204670BD00005A06002010B5204CEA
:10318000002210212046FEF776F80321232000F0CC
:103190005CF805221B492A2000F036F80121212085
:1031A00000F053F80121222000F04FF81A212420CA
:1031B00000F04BF80121252000F047F807212620D8
:1031C00000F043F80F21202000F03FF8FF21E1201C
:1031D00000F03BF8FF21E22000F037F801213C200D
:1031E00000F033F806213D2000F02FF801221021D5
:1031F0002046FEF740F8BDE810408220FFF7B0BE41
:1032000000080048090000202DE9F04115460F464E
:1032100004464FF09048002210214046FEF72BF85C
:10322000204600F02BF80646002404E0385D00F04C
:1032300025F8641CE4B2AC42F8D3012210214046C8
:10324000FEF719F83046BDE8F08170B50E46044629
:103250004FF09045002210212846FEF70CF820463A
:1032600000F00CF80446304600F008F80122102166
:103270002846FEF700F8204670BD000001B582B078
:1032800064200090012301AA02A90348FEF7A2FED0
:103290009DF804000EBD0000440800202DE91040F8
:1032A000FFF7E6FE0028FBD1BDE81040FFF766BF40
:1032B000FFF780FA0348FFF7FFFA012000F004F857
:1032C000F6E700001807002010B5EFF3058111B1F3
:1032D0006FF0050403E0002408B100F0D1FE2046A1
:1032E00010BD0000EFF3058010B16FF005007047CE
:1032F0000448016811B14FF0FF30704701210160AF
:10330000002070470805002010B5EFF3058010B1CC
:103310006FF0050010BD08480168012902D04FF088
:10332000FF3010BD054A002182F8141D0221016002
:1033300000F00EFF002010BD080500200BE000E0AB
:103340002DE9FF414FEA01034FF00005EFF305813E
:10335000039549BB40B38027182100244AB316685F
:1033600006B1344696691EB13146761E382E02D219
:103370001679F60703D0002004B0BDE8F081566945
:1033800006B1B708D2F808C0BCF1000F0DD0D5685F
:103390005C2D18D312693AB136B18DE806103A4661
:1033A000214601F06EFA03900DE0D6685EB912690D
:1033B0004AB903AACDE90012BAB2214601F034FAA3
:1033C000012800D003950398D6E700002DE9F041CD
:1033D000134C0F460546E6682068001D00F01CFDF2
:1033E000681C07D137B12168BDE8F0410D48091DBF
:1033F00000F062BD20683544B5424560216805D2C1
:10340000A06BBDE8F041091D00F03EBD606B091DD9
:1034100000F03AFDA06A854200D2A562BDE8F081C5
:10342000B8040020E40D00202DE9F041054600F02D
:103430004FFD2D4CA068401CA06020682B4F10B1A0
:10344000606930B32BE02560A068012827D10026F1
:1034500006EB860007EB800000F008FD761C382E96
:10346000F6D3234800F002FD2148143000F0FEFCA2
:103470001F48283000F0FAFC1D483C3000F0F6FCF4
:103480001B48503000F0F2FC194860631430A06310
:1034900005E02068E96AC06A884200D82560606A51
:1034A000401C60626864E86A2169884200D9206132
:1034B00000EB800007EB8000291D00F0FDFC00F010
:1034C00027FD606900280CD02068E96AC06A88423C
:1034D00007D208494FF080500860BFF34F8FBFF309
:1034E0006F8FBDE8F0810000B8040020340900208F
:1034F000940D002004ED00E038B500F0E9FC104C1C
:103500002068C8B90F4800F0B1FC0E48143000F034
:10351000ADFC0C48E060143020610A4B0020F03B09
:10352000009003F1500210210A2000F01FFF2060DC
:1035300010B105A100F06EFDBDE8384000F0E8BC18
:10354000F4040020E80E0020546D725100000000C9
:1035500030B4026C0B46002A0BD0C1681144C16024
:103560008468A14201D30168C16030BC1846FCF7F1
:1035700023BF30BC70472DE9F041856B17460446E8
:103580000026026C82B1C7B1E068FCF715FFE16864
:10359000206C091AE1602268914202D2A168081ADF
:1035A000E060022F16D017E02068A8B9A06801F0EB
:1035B0000BFA06460020A0600EE06068FCF7FCFEF7
:1035C000216C606808446060A168884204D3206868
:1035D000606001E005B16D1E6D1CA5633046BDE85D
:1035E000F08110B5044690F8590058B101280CD06C
:1035F00002280FD0502080F31188BFF34F8FBFF304
:103600006F8FFEE7206B00F097FC2046BDE810406E
:1036100000F092BC10BD000010484FF4406142071A
:1036200006D0C01D0D4920F00700411AC1F54061C8
:103630000B4A00230144C2E900030839183A21F07B
:10364000070111604B600B600B1AC0E90013936017
:103650004FF000405360506170470000C8150020D3
:1036600024050020144E154CA6F29C474FF08058BC
:10367000DFF84C9012E000BF00F02AFCF068C5684B
:10368000281D00F0C9FBA068401EA0606068401EB5
:10369000606000F03DFC2846FFF7A3FF606800284B
:1036A000EAD138680128F9D9C9F80080BFF34F8FF3
:1036B000BFF36F8FF2E70000D00D0020B8040020A8
:1036C00004ED00E070B51D46049C51B1C4F8002023
:1036D000C4E90F010121204600F07CFE84F84C5023
:1036E00070BD2460F4E700002DE9F05F8846DDE955
:1036F0000B941546834691009A460A9EA522206B9C
:10370000FCF79FFE6FF00301206B01EB850108447D
:1037100020F00707780707D0502080F31188BFF307
:103720004F8FBFF36F8FFEE70025B8F1000F0FD06A
:103730005FF00000221818F8001082F8341018F812
:10374000001011B1401C1028F4D384F8435001E05C
:1037500084F83450382E00D33726E662C4E9136566
:10376000201D00F08EFB04F1180000F08AFB24619C
:10377000C6F138006462A061656584F8585052460D
:103780005946384600F05AFA2060B9F1000F01D0CE
:10379000C9F80040BDE8F09F30B5114900E011467E
:1037A0000A688242FBD34B685C18844203D14068AC
:1037B00018444860084643681C18944209D1084CD4
:1037C000183C2468A24209D052681A4442600A6830
:1037D00012680260814200D0086030BD0460F9E7E1
:1037E0002405002070B5002441600B4D006191421A
:1037F00006D8D11A8269914206D2011D286907E0D4
:103800009A4203D2994201D3012403E0011DE868E2
:1038100000F03AFB204670BDF404002010B50446C9
:1038200000F056FBA06B28B15FF0000400F070FBC5
:10383000204610BD0124F9E730B589B03C4D6EE05B
:103840000498002806DADDE90601059A90470498F5
:10385000002864DB069C606910B1201D00F0DCFAD2
:1038600003A800F0D7F8024604980A2857D2DFE8E8
:1038700000F00505052D334A05052D3394F8280081
:1038800040F0010084F828000599A069059B0144D7
:103890002046FFF7A7FF68B3216A2046884794F8BF
:1038A000280040073BD5002000900598A16900231F
:1038B00042181946204601F091F9D8B9502080F3FA
:1038C0001188BFF34F8FBFF36F8FFEE714F8280FF7
:1038D00020F00100207022E094F8280040F0010060
:1038E00084F828000598A06128B181181346204665
:1038F000FFF778FF13E0502080F31188BFF34F8F5C
:10390000BFF36F8FFEE794F82800810703D42046A9
:1039100000F012FB03E020F0010084F828000022F0
:1039200004A9286800F0AAFE002889D109B030BD9A
:10393000F40400202DE9FC410F46054600F04CFC44
:1039400001A800F067F80446019818B101F0B4F836
:10395000BDE8FC81254EAFB130690068D0B30027C7
:10396000291B3A46306800F069FB01F0A5F80028F1
:10397000EED11F494FF080500860BFF34F8FBFF367
:103980006F8FE5E7A542EBD801F096F8F06827467F
:10399000C068C468201D00F03FFA94F82800410771
:1039A00019D5A0692B4641193A462046FFF71AFF60
:1039B000A8B100200346014600902A46204601F0A7
:1039C0000DF960B9502080F31188BFF34F8FBFF31A
:1039D0006F8FFEE707E020F0010084F82800216ADD
:1039E00020468847B4E70127BAE70000F404002026
:1039F00004ED00E00648416B096829B1416BC968D4
:103A0000C9684968816270474FF0FF31FAE70000EA
:103A1000B804002070B5054600F06CFF064E044661
:103A2000B068844203D200F009F8012000E00020D1
:103A300028602046B46070BDF4040020F8B5194D2C
:103A400020E0C068C4680668201D00F0E5F9216A1E
:103A50002046884794F82800400713D5A0693044D1
:103A6000B04206D924616060211DE86800F00CFABC
:103A700008E000200346014600903246204601F04F
:103A8000ADF838B1E86801680029DAD12969C5E9DB
:103A90000310F8BD502080F31188BFF34F8FBFF3A0
:103AA0006F8FFEE7F404002008484068401C4FF088
:103AB000500080F3118804D0BFF34F8FBFF36F8F96
:103AC000FEE7BFF34F8FBFF36F8FFEE72C0500209B
:103AD000074CE068016841B1C0680021D0F80000DF
:103AE000FFF728FFFFF7A8FEF3E701210020F7E723
:103AF000F40400202DE9F041044600F0E9F994F9BE
:103B0000455004F1240609E0606A48B1304600F0EF
:103B10009BFF08B100F0E2FA6D1E6DB2002DF3DCE0
:103B20004FF0FF3684F8456000F0F2F900F0D0F96C
:103B300094F9445004F1100709E0206948B138466F
:103B400000F082FF08B100F0C9FA6D1E6DB2002DC1
:103B5000F3DC84F84460BDE8F04100F0D9B900001E
:103B60002DE9F0410546002700F036FB324E306863
:103B700008B9FFF751FD706905424ED1C5B308354C
:103B800068070ED005F00700C0F10800054468077B
:103B900007D0502080F31188BFF34F8FBFF36F8F92
:103BA000FEE72DB37068854237D8234818300146A8
:103BB0000C6801E020460C466168A94202D22168E7
:103BC0000029F7D131688C4227D00768216801604D
:103BD00060680837411B10290FD96019420708D0C7
:103BE000502080F31188BFF34F8FBFF36F8FFEE734
:103BF00013E041606560FFF7CFFD61687068401AAF
:103C00007060B268904200D2B060706901430020D9
:103C1000C4E90001F068401CF06000F04DFF780737
:103C200007D0502080F31188BFF34F8FBFF36F8F01
:103C3000FEE73846BDE8F0810C05002010B5031FF3
:103C40004FF080741C601B1F21F001011960191FC7
:103C5000044B0B6014390A60091F6FF002024438EC
:103C60000A6010BDA93A0008FFF7ECF80120FFF741
:103C70002BFBF9E7FFF7D0F9FCF762FDFCF794FDA9
:103C80000120FFF721FBF5E7FFF75AF9FFF706F9E7
:103C90000120FFF719FBF7E7564B10B5198803F120
:103CA0000E0001F001020270C1F340024270C1F344
:103CB00080028270C1F3C002C270C1F300120271AF
:103CC000C1F340124271C1F380128271C1F3C0127C
:103CD000C2719A7802F001040472C2F34004447283
:103CE000C2F380048472C2F3C004C472C2F300142D
:103CF0000473C2F340144473C2F380148473C2F398
:103D0000C012C273C1F380220274C1F3C022427494
:103D1000C1F300328274C1F34032C274C1F3803205
:103D20000275C1F3C03242751A7BC2F3C0038375BA
:103D3000C2F38003C375C2F34003037602F00102AD
:103D40004276C1F300228276C1F34021C17601465A
:103D50001C221C30FCF730FB012000F04DF8254AF6
:103D600000232A3219304FF4BE7432280AD90120B8
:103D700000F042F8BE30A04204D8012000F03CF828
:103D8000D08300E0D383002000F036F819303228C9
:103D90000AD9002000F030F8BE30A04204D800203C
:103DA00000F02AF8908300E09383022000F024F8CA
:103DB000193032280AD9022000F01EF8BE30A04285
:103DC00004D8022000F018F8108400E013840320C7
:103DD00000F012F8193032280AD9032000F00CF84C
:103DE000BE30A04204D8032000F006F8508410BD75
:103DF000538410BD0C06002001460648012900EB43
:103E00004100B0F9040001D0002901D1404200B2C4
:103E1000704700000C060020D0E9013201699A6069
:103E2000D0E901235A604A68824201D182684A601F
:103E3000002202610868401E0860086870470000A0
:103E4000034B036003F15C00086080201060704742
:103E5000100F0020044B036003F15C0008604FF476
:103E600080701060704700006C11002000F10801A4
:103E70004FF0FF32C0E90112C16001610021016011
:103E8000704700210161704730B50B685A1C02D0A1
:103E900000F1080202E0026904E022465468256845
:103EA0009D42FAD953684B6099608A6051600861FD
:103EB0000168491C016030BD42684A6093688B60AC
:103EC00093685960916008610168491C01607047FE
:103ED000502080F31188BFF34F8FBFF36F8F0A49D3
:103EE0004868401C486001280CD10848006810F060
:103EF000FF0F07D0502080F31188BFF34F8FBFF31F
:103F00006F8FFEE7704700002C05002004ED00E0F5
:103F10000849486828B1401E486001D180F31188E3
:103F20007047502080F31188BFF34F8FBFF36F8F1E
:103F3000FEE700002C05002070B500282AD0164DA1
:103F4000A0F1080460686969084207D1502080F335
:103F50001188BFF34F8FBFF36F8FFEE722683AB12E
:103F6000502080F31188BFF34F8FBFF36F8FFEE7B0
:103F70008843606000F030F96068696808446860F0
:103F80002046FFF709FC2869401C2861BDE8704005
:103F900000F092BD70BD00000C0500204FF0E02045
:103FA00000210161816105494FF47A720968B1FB12
:103FB000F2F1491E4161072101617047B4040020FC
:103FC00010B5FCF7D5F9114910280ED300F1E02007
:103FD00090F8F0030A78904207D2502080F31188BD
:103FE000BFF34F8FBFF36F8FFEE709480068896802
:103FF00000F4E060884207D9502080F31188BFF3B5
:104000004F8FBFF36F8FFEE710BD00002C0500201F
:104010000CED00E010B5084B002200BF53F8324011
:104020001CB1521C082AF9D310BD43F8321003EB1F
:10403000C201486010BD0000F408002070B51546AC
:104040000E460446FFF744FF94F944100020491C33
:1040500001D184F8440094F94510491C01D184F839
:104060004500FFF755FFA06B28B92A46314604F1F9
:10407000240000F051F82046BDE87040FFF73ABD3B
:1040800010B5020014D00F48006B38B1502080F3F7
:104090001188BFF34F8FBFF36F8FFEE700F09CF8DE
:1040A00000211046FFF792F900F006FD002807D125
:1040B00005494FF080500860BFF34F8FBFF36F8FFB
:1040C00010BD0000B804002004ED00E002490A6AB7
:1040D0000260C96841607047B804002001490120AE
:1040E000C8617047B804002010B50C4650B10949AA
:1040F00009681831FFF7C8FE2046BDE810400121CD
:10410000FFF764B9502080F31188BFF34F8FBFF3DE
:104110006F8FFEE7B804002070B514460D4668B1F5
:104120000A4909681831FFF7C7FE0CB14FF0FF3597
:1041300021462846BDE87040FFF748B9502080F37B
:104140001188BFF34F8FBFF36F8FFEE7B8040020D5
:1041500030B587B00024039405AA04A903A80494E9
:10416000FFF76EFEDDE903010094CDE901100023A5
:1041700015A11748059A00F084FB164D0028E86247
:104180001FD000F0FBFC012809D0401C19D15020A1
:1041900080F31188BFF34F8FBFF36F8FFEE750207E
:1041A00080F31188BFF34F8FBFF36F8F4FF0FF3055
:1041B000A86201206861EC6007B0BDE8304000F003
:1041C00045B807B030BD000049444C450000000030
:1041D00065360008B80400200248016B491C0163E1
:1041E00070470000B8040020164810B5016B11B1EB
:1041F0000121C16110BD0021C1610169124A01E0C4
:10420000B9B1491E01EB810352F82330002BF7D0DE
:1042100001EB810302EB830202F1080453685B683F
:104220005360A34201D15B685360DA6802600161A8
:1042300010BD502080F31188BFF34F8FBFF36F8FF5
:10424000FEE70000B8040020340900201CB5374800
:104250000168374A914207D1502080F31188BFF39B
:104260004F8FBFF36F8FFEE700683149491E8842C8
:1042700007D1502080F31188BFF34F8FBFF36F8FAA
:10428000FEE72C4908780190FF20087008788DF827
:1042900000009DF800009DF8002000F0F000904222
:1042A00007D0502080F31188BFF34F8FBFF36F8F7B
:1042B000FEE79DF80000204C00F050002070072021
:1042C000A06005E09DF8002052008DF80020401EFF
:1042D0009DF800201206F5D4A060032807D05020D6
:1042E00080F31188BFF34F8FBFF36F8FFEE74FF45A
:1042F0004070A060019808700C482030016841F4BB
:1043000070010160016841F070410160FFF746FEF5
:1043100000206060FBF7F4FF0848016841F040416D
:104320000160FBF7D9FF00201CBD000000ED00E09C
:1043300071C20F4100E400E02C05002034EF00E0E2
:1043400010B5502080F31188BFF34F8FBFF36F8FEC
:1043500000F0D6FA18B104494FF0805008600020F0
:1043600080F3118810BD000004ED00E038B5049D15
:1043700018B153B1CAB181B120E0502080F3118847
:10438000BFF34F8FBFF36F8FFEE7502080F311888C
:10439000BFF34F8FBFF36F8FFEE7502080F311887C
:1043A000BFF34F8FBFF36F8FFEE739B1502080F31B
:1043B0001188BFF34F8FBFF36F8FFEE750241C4669
:1043C000012384F846302B460094FFF77BF9204602
:1043D00038BD000070B50D46040025D0FFF778FD0C
:1043E000D4E90F20216802FB0011A1600021A16324
:1043F000216861600A46D4E90F01401E00FB0121DB
:10440000E16021464FF0FF3001F8440F487004F19D
:1044100010008DB1FFF72AFD04F12400FFF726FDFF
:10442000FFF776FD012070BD502080F31188BFF3A7
:104430004F8FBFF36F8FFEE721690029F0D000F0A6
:1044400003FB0028ECD004494FF080500860BFF314
:104450004F8FBFF36F8FE3E704ED00E02DE9FF47D7
:1044600082B01D468A464FF00008040003D0BAF11E
:10447000000F08D011E0502080F31188BFF34F8F58
:10448000BFF36F8FFEE7206C38B1502080F31188A6
:10449000BFF34F8FBFF36F8FFEE7022D0AD1E06BA2
:1044A000012807D0502080F31188BFF34F8FBFF34E
:1044B0006F8FFEE700F010FA3F4F4FF000094FF00A
:1044C000805648B9049838B1502080F31188BFF362
:1044D0004F8FBFF36F8FFEE7FFF7FAFCA06BE16B26
:1044E000884207D3022D05D00498D0B1B8F1000F4F
:1044F0001AD01EE02A4651462046FFF73CF8616A72
:1045000019B104F1240000F09FFA20B13E60BFF31E
:104510004F8FBFF36F8FFFF7FBFC012006B0BDE8A4
:10452000F087FFF7F5FC22E06846FFF7CFFD4FF07C
:104530000108FFF7EDFCFFF74FFEFFF7C9FC94F908
:104540004400401C01D184F8449094F94500401C7B
:1045500001D184F84590FFF7DBFC04A9684600F020
:1045600029F930B12046FFF7C5FA00F0A5FA00207E
:10457000D4E7FFF7ADFCA06BE16B884213D1FFF7E6
:10458000C7FC04F110000499FFF7AEFD2046FFF7C9
:10459000B1FA00F091FA00289ED13E60BFF34F8F30
:1045A000BFF36F8F98E7FFF7B3FC2046FFF7A2FA3F
:1045B00000F082FA90E7000004ED00E02DE9F047FA
:1045C0001F4690468946040003D0B9F1000F08D079
:1045D00011E0502080F31188BFF34F8FBFF36F8F2E
:1045E000FEE7206C38B1502080F31188BFF34F8F65
:1045F000BFF36F8FFEE7022F0AD1E06B012807D0CF
:10460000502080F31188BFF34F8FBFF36F8FFEE709
:10461000FFF7D6FC5020EFF3118680F31188BFF32B
:104620004F8FBFF36F8FA06BE16B884206D3022FD1
:1046300004D0002086F31188BDE8F08794F9455036
:10464000A06B3A4649462046FEF795FF681C04D009
:104650006D1C84F845500120ECE7606A0028FAD010
:1046600004F1240000F0F0F90028F4D0B8F1000FB4
:10467000F1D00121C8F80010EDE700002DE9F7475F
:10468000002683B08A46040003D0BAF1000F08D098
:1046900011E0502080F31188BFF34F8FBFF36F8F6D
:1046A000FEE7206C38B1502080F31188BFF34F8FA4
:1046B000BFF36F8FFEE700F00FF9DFF8F4804FF0E3
:1046C00000094FF0805748B9059838B1502080F361
:1046D0001188BFF34F8FBFF36F8FFEE7FFF7F8FB33
:1046E000A56BC5B151462046FEF732FF6D1EA5638E
:1046F000206950B104F1100000F0A6F928B1C8F803
:104700000070BFF34F8FBFF36F8FFFF701FC0120E5
:1047100006B0BDE8F087059808B11EB106E0FFF7C6
:10472000F7FB27E06846FFF7D1FC0126FFF7F0FB17
:10473000FFF752FDFFF7CCFB94F94400401C01D178
:1047400084F8449094F94500401C01D184F84590C8
:10475000FFF7DEFB05A9684600F02CF8002820468C
:104760000AD0FFF7C7F900F0A7F92046FFF756F87F
:104770000028B3D00020CBE7FFF750F890B104F148
:1047800024000599FFF7B0FC2046FFF7B3F900F0CD
:1047900093F90028A2D1C8F80070BFF34F8FBFF380
:1047A0006F8F9BE72046FFF7A5F900F085F995E7A5
:1047B00004ED00E02DE9F0410C46050011D0C4B134
:1047C000FFF786FB174BDA686E682068911B471C61
:1047D00017D02F681B6A9F4219D0964217D8012420
:1047E00010E0502080F31188BFF34F8FBFF36F8F1D
:1047F000FEE7502080F31188BFF34F8FBFF36F8F18
:10480000FEE70024FFF784FB2046BDE8F0818842E4
:1048100005D9401A20602846FFF758FCF1E7002030
:104820002060DCE7B80400202DE9FF5F8346DDE966
:104830000E87994616468A469000FFF791F90500C3
:104840001CD05C20FFF78CF9040014D000202563F5
:1048500084F85900CDE90240CDE900874B46324645
:1048600051465846FEF740FF2046FEF7DDFD012089
:1048700004B0BDE8F09F2846FFF75EFB4FF0FF3025
:10488000F6E7F0B585B0DDE90B640A9DA6B1DCB1B1
:104890005C2700972663022684F85960002604AF3F
:1048A000CDE90246CDE90057FEF71EFF2046FEF790
:1048B000BBFD049805B0F0BD502080F31188BFF314
:1048C0004F8FBFF36F8FFEE7502080F31188BFF347
:1048D0004F8FBFF36F8FFEE70548416919B1006B39
:1048E00018B1002070470120704702207047000077
:1048F000B80400200148C06870470000B8040020D8
:104900002DE9F0412E4C0027206B28B1A069401CF6
:10491000A0613846BDE8F081E668761CE66013D1F8
:10492000606B006838B1502080F31188BFF34F8F5F
:10493000BFF36F8FFEE7606BA16B6163A063206ABA
:10494000401C2062FFF756F8A06ADFF878808642A4
:1049500009D3606B0068A0B1606BC068C568686807
:10496000864211D2A0622068C06A00EB800158F82C
:104970002100012800D90127E0690028C9D00127BA
:10498000C7E74FF0FF30EDE7281DFFF745FAA86AAB
:1049900018B105F11800FFF73FFAE86A216988426B
:1049A00000D9206100EB800108EB8100291DFFF791
:1049B00083FAE86A2168C96A8842CAD30127C8E72E
:1049C000B80400203409002070B504004FF0000145
:1049D00033D01B4D2868844207D0502080F31188C3
:1049E000BFF34F8FBFF36F8FFEE7206D38B1401ECE
:1049F0002065E36CE26A9A421FD040B11DE050206E
:104A000080F31188BFF34F8FBFF36F8FFEE7201D38
:104A1000FFF702FAE06CE062C0F13800A061E06AE2
:104A20002969884200D92861064900EB800001EB22
:104A30008000211DFFF740FA0121084670BD0000EB
:104A4000B80400203409002070B5C068C46854B1AF
:104A500004F118000646FFF7DFF9144D286B50B13A
:104A60003146134815E0502080F31188BFF34F8F73
:104A7000BFF36F8FFEE7201DFFF7CEF9E06A2969CB
:104A8000884200D928610B4900EB800001EB8000CF
:104A9000211DFFF711FAE06A2968C96A884202D924
:104AA0000120E86170BD002070BD0000B804002046
:104AB000BC0D0020340900202DE9F0472C4D0024C6
:104AC0002746286B38B1FFF703FA286B401E28638E
:104AD000286B40B146E0502080F31188BFF34F8F20
:104AE000BFF36F8FFEE7A968224E0120D1B3A6F570
:104AF000916980463068E0B1F068C46804F118003C
:104B0000FFF78AF9201DFFF787F9E06A29698842D3
:104B100000D9286100EB800109EB8100211DFFF71E
:104B2000CBF9E06A2968C96A8842E3D3C5F81C80DA
:104B3000E0E70CB1FEF75EFFAC694CB14FEA080646
:104B4000FFF7DEFE00B1EE61641EF9D10020A8611E
:104B5000E86938B10849012738070860BFF34F8F6B
:104B6000BFF36F8FFFF7D4F93846BDE8F087000038
:104B7000B8040020BC0D002004ED00E010B586B0A4
:104B8000FEF7BAFC114C2068B8B1002003900490E5
:104B900005AA04A903A8FFF75DF9DDE903210220B6
:104BA0008DE8070000230AA10B48059AFFF769FE6C
:104BB000606010B106B0012010BD502080F3118854
:104BC000BFF34F8FBFF36F8FFEE70000F4040020A8
:104BD000546D722053766300D13A00082DE9FF41ED
:104BE0001E46134602000A9D4FF0000016D0144CDA
:104BF0002768002F0FD0CDE900130292062917DA9B
:104C0000FFF76AFE02284FF000030FD0002269462A
:104C10002068FFF723FC04B0BDE8F081502080F34A
:104C20001188BFF34F8FBFF36F8FFEE72A46EEE781
:104C30000023324669463846FFF7C0FCEBE7000028
:104C4000F404002021F00042A2F16052B2F5801F6E
:104C500001F0004328BFD2F17F6C0BD95FEA001C42
:104C600043EAC20242EB507018BF704728BF20F0E1
:104C700001007047B2F5801FBCBF184670474FEA6D
:104C8000410C1CF5001F02D2084600F0D5B970B5E2
:104C900000F079F900000089FFF7F6BF4FF00040FF
:104CA000A0F58000704700002DE9C04130B4DFF866
:104CB000A0C23CEA111418BF3CEA131400F0EC80C7
:104CC00081EA03051CEA111444EAD57418BF1CEAF2
:104CD000131500F0C780A4EB05044FF0004545EA2A
:104CE000C12145EAC32341EA505143EA525304F13A
:104CF0007F74994204F500344FEAC0204FEAC22283
:104D000008BF904200F09C804FEA13650FF24016F6
:104D1000765D4FEA134506FB05F7C7F1807706FB82
:104D200007F74FEAD737A7FB03687642C8F5803804
:104D3000A7FB06CE38BFA8F1010807FB08E64FF035
:104D4000000EA6FB028CE6FB03CEDCF1000CCEF1DC
:104D5000004E38BFAEF1010EA6FB0C584FF0000715
:104D60004FF00005E6FB0E87A1FB08C6A0FB07CEAF
:104D700016EB0E0645F10005E1FB076515F1E04E67
:104D80007EBFA4F580345FEA46066D4116F18007C8
:104D900045F100054FEA17274FEA066647EA05671F
:104DA000A6F1DE46B6F1805F4FEA15251FD93846D9
:104DB00024F0010C05EBC471BCF1FE6F01EB0C118A
:104DC00002D8F0BCBDE8008124425CBF01F5801E22
:104DD0009EEAC47F02D4F0BCBDE80081244238D4EE
:104DE000F0BCA1F1C041BDE8004100F01AB94FEAA2
:104DF000D22242EA43524FEAD323A7FB02864FEA6C
:104E0000D02040EA415007FB03661EEA0E0F4FEA2E
:104E1000D12105FB026658BFA6EB0056B6EB005643
:104E20004FEA520E4EEAC37E18EB0E0E56EB530EAF
:104E3000BDD518EB02085E417F1C55F10005B6E7B1
:104E40004FF480154FF000074FF000064FF00008B8
:104E5000ADE7F0BC4FF0000001F1C04101F00041AE
:104E6000BDE8008111EA0C1F0CEA131500D00CE01C
:104E700013EA0C1F00F025804FF00000F0BC81EA1F
:104E8000030101F00041BDE80081F0BCBDE8004134
:104E900081EA030100F0C5B8F0BCBDE8004170B57F
:104EA00000F071F8097EFC3E00F007B881EA0301CA
:104EB0004FF0000001F00041704781EA030100F06B
:104EC000B0B8F0BCBDE800414FF000002149704788
:104ED000FFFDFBF9F7F5F4F2F0EEEDEBE9E8E6E4BF
:104EE000E3E1E0DEDDDBDAD8D7D5D4D3D1D0CFCD46
:104EF000CCCBCAC8C7C6C5C4C2C1C0BFBEBDBCBB7F
:104F0000BAB9B8B7B6B5B4B3B2B1B0AFAEADACAB79
:104F1000AAA9A8A8A7A6A5A4A3A3A2A1A09F9F9E53
:104F20009D9C9C9B9A999998979796959594939305
:104F3000929191908F8F8E8E8D8C8C8B8B8A89899C
:104F4000888887878685858484838382828181801F
:104F50000000FF070000F87F10F0004248BF404209
:104F6000B0FA80F310FA03F10AD0C3F11D0303F580
:104F700080634FEA415002EB035202EBD1217047AC
:104F80004FF0000070470EF1020E2EF0030E5EF897
:104F9000046B364205D4012A43EB030515F5001FC7
:104FA00012D8012841EB010C1CF5001F0CD80ED1C2
:104FB0004FEAD17C15F5001F0CEB4C0C0CF1020CE8
:104FC00008BF4CEBD37C04E04FF0080C01E04FEA43
:104FD000D37C0CEB4C0526FA05F606F00706B6F175
:104FE000040C06D20EEB860CBDE870404CF0010CB0
:104FF0006047DFE80CF0090B02024FF000414FF070
:105000000000A1F5002170BD19461046012851EBA2
:10501000010418BFD4F5001484BF002001F0004142
:1050200070BD0808A0F500114FEA310170474FF03C
:105030004070E1EE100A7047FF2141EAD050C005F0
:105040007047000050510008000000000000000000
:105050000000000000000000000200001800000036
:1050600000000000000000002051000800000000C7
:10507000000000000000000000000000000200002E
:105080001800000000000000000000002C51000883
:105090000000000000000000000000000000000010
:1050A00000020000180000000000000000000000E6
:1050B000385100080000000000000000000000005F
:1050C00000000000000200001800000000000000C6
:1050D0000000000044510008000000000000000033
:1050E00000000000000000000002000018000000A6
:1050F0000000000000000000000102030405060794
:10510000080C1014182030400000000000000000BF
:10511000010203040607080900000000010203045D
:105120006D795461736B3032000000006D79546109
:10513000736B3033000000006D795461736B303451
:10514000000000006D795461736B30350000000081
:1051500064656661756C745461736B007C51000802
:10516000000000203805000014020008F451000877
:1051700038050020F022000070020008812F012075
:10518000222C010C05022C0182411B803E040412DA
:10519000C1FFFF13A0400C80806D4544410B647A31
:1051A00044440BFD204144311E48429A99993A618A
:1051B0002360090B12A0F6440BE3803F44AC401C73
:1051C00046442378050B1288FA44410924441B986D
:1051D000089A0A3CF4440918CC094844E3F401292C
:1051E0001029042917E9040118AA1020037924F4CE
:0451F0001AAA0141B5
:04000005080001D915
:00000001FF
